{
  "_format": "hh-sol-artifact-1",
  "contractName": "MockNFT",
  "sourceName": "contracts/MockNFT.sol",
  "abi": [
    {
      "anonymous": false,
      "inputs": [
        {
          "indexed": true,
          "internalType": "address",
          "name": "owner",
          "type": "address"
        },
        {
          "indexed": true,
          "internalType": "address",
          "name": "approved",
          "type": "address"
        },
        {
          "indexed": true,
          "internalType": "uint256",
          "name": "tokenId",
          "type": "uint256"
        }
      ],
      "name": "Approval",
      "type": "event"
    },
    {
      "anonymous": false,
      "inputs": [
        {
          "indexed": true,
          "internalType": "address",
          "name": "owner",
          "type": "address"
        },
        {
          "indexed": true,
          "internalType": "address",
          "name": "operator",
          "type": "address"
        },
        {
          "indexed": false,
          "internalType": "bool",
          "name": "approved",
          "type": "bool"
        }
      ],
      "name": "ApprovalForAll",
      "type": "event"
    },
    {
      "anonymous": false,
      "inputs": [
        {
          "indexed": true,
          "internalType": "address",
          "name": "from",
          "type": "address"
        },
        {
          "indexed": true,
          "internalType": "address",
          "name": "to",
          "type": "address"
        },
        {
          "indexed": true,
          "internalType": "uint256",
          "name": "tokenId",
          "type": "uint256"
        }
      ],
      "name": "Transfer",
      "type": "event"
    },
    {
      "inputs": [
        {
          "internalType": "address",
          "name": "to",
          "type": "address"
        },
        {
          "internalType": "uint256",
          "name": "tokenId",
          "type": "uint256"
        }
      ],
      "name": "approve",
      "outputs": [],
      "stateMutability": "nonpayable",
      "type": "function"
    },
    {
      "inputs": [
        {
          "internalType": "address",
          "name": "owner",
          "type": "address"
        }
      ],
      "name": "balanceOf",
      "outputs": [
        {
          "internalType": "uint256",
          "name": "",
          "type": "uint256"
        }
      ],
      "stateMutability": "view",
      "type": "function"
    },
    {
      "inputs": [
        {
          "internalType": "uint256",
          "name": "tokenId",
          "type": "uint256"
        }
      ],
      "name": "getApproved",
      "outputs": [
        {
          "internalType": "address",
          "name": "",
          "type": "address"
        }
      ],
      "stateMutability": "view",
      "type": "function"
    },
    {
      "inputs": [
        {
          "internalType": "address",
          "name": "owner",
          "type": "address"
        },
        {
          "internalType": "address",
          "name": "operator",
          "type": "address"
        }
      ],
      "name": "isApprovedForAll",
      "outputs": [
        {
          "internalType": "bool",
          "name": "",
          "type": "bool"
        }
      ],
      "stateMutability": "view",
      "type": "function"
    },
    {
      "inputs": [
        {
          "internalType": "address",
          "name": "to",
          "type": "address"
        },
        {
          "internalType": "uint256",
          "name": "tokenId",
          "type": "uint256"
        }
      ],
      "name": "mint",
      "outputs": [],
      "stateMutability": "nonpayable",
      "type": "function"
    },
    {
      "inputs": [],
      "name": "name",
      "outputs": [
        {
          "internalType": "string",
          "name": "",
          "type": "string"
        }
      ],
      "stateMutability": "view",
      "type": "function"
    },
    {
      "inputs": [
        {
          "internalType": "uint256",
          "name": "tokenId",
          "type": "uint256"
        }
      ],
      "name": "ownerOf",
      "outputs": [
        {
          "internalType": "address",
          "name": "",
          "type": "address"
        }
      ],
      "stateMutability": "view",
      "type": "function"
    },
    {
      "inputs": [
        {
          "internalType": "address",
          "name": "from",
          "type": "address"
        },
        {
          "internalType": "address",
          "name": "to",
          "type": "address"
        },
        {
          "internalType": "uint256",
          "name": "tokenId",
          "type": "uint256"
        }
      ],
      "name": "safeTransferFrom",
      "outputs": [],
      "stateMutability": "nonpayable",
      "type": "function"
    },
    {
      "inputs": [
        {
          "internalType": "address",
          "name": "from",
          "type": "address"
        },
        {
          "internalType": "address",
          "name": "to",
          "type": "address"
        },
        {
          "internalType": "uint256",
          "name": "tokenId",
          "type": "uint256"
        },
        {
          "internalType": "bytes",
          "name": "_data",
          "type": "bytes"
        }
      ],
      "name": "safeTransferFrom",
      "outputs": [],
      "stateMutability": "nonpayable",
      "type": "function"
    },
    {
      "inputs": [
        {
          "internalType": "address",
          "name": "operator",
          "type": "address"
        },
        {
          "internalType": "bool",
          "name": "approved",
          "type": "bool"
        }
      ],
      "name": "setApprovalForAll",
      "outputs": [],
      "stateMutability": "nonpayable",
      "type": "function"
    },
    {
      "inputs": [
        {
          "internalType": "bytes4",
          "name": "interfaceId",
          "type": "bytes4"
        }
      ],
      "name": "supportsInterface",
      "outputs": [
        {
          "internalType": "bool",
          "name": "",
          "type": "bool"
        }
      ],
      "stateMutability": "view",
      "type": "function"
    },
    {
      "inputs": [],
      "name": "symbol",
      "outputs": [
        {
          "internalType": "string",
          "name": "",
          "type": "string"
        }
      ],
      "stateMutability": "view",
      "type": "function"
    },
    {
      "inputs": [
        {
          "internalType": "uint256",
          "name": "tokenId",
          "type": "uint256"
        }
      ],
      "name": "tokenURI",
      "outputs": [
        {
          "internalType": "string",
          "name": "",
          "type": "string"
        }
      ],
      "stateMutability": "view",
      "type": "function"
    },
    {
      "inputs": [
        {
          "internalType": "address",
          "name": "from",
          "type": "address"
        },
        {
          "internalType": "address",
          "name": "to",
          "type": "address"
        },
        {
          "internalType": "uint256",
          "name": "tokenId",
          "type": "uint256"
        }
      ],
      "name": "transfer",
      "outputs": [],
      "stateMutability": "nonpayable",
      "type": "function"
    },
    {
      "inputs": [
        {
          "internalType": "address",
          "name": "from",
          "type": "address"
        },
        {
          "internalType": "address",
          "name": "to",
          "type": "address"
        },
        {
          "internalType": "uint256",
          "name": "tokenId",
          "type": "uint256"
        }
      ],
      "name": "transferFrom",
      "outputs": [],
      "stateMutability": "nonpayable",
      "type": "function"
    }
  ],
  "bytecode": "0x60806040523480156200001157600080fd5b506040518060400160405280600781526020017f4d6f636b4e4654000000000000000000000000000000000000000000000000008152506040518060400160405280600481526020017f6d4e465400000000000000000000000000000000000000000000000000000000815250816000908051906020019062000096929190620000b8565b508060019080519060200190620000af929190620000b8565b505050620001cd565b828054620000c69062000168565b90600052602060002090601f016020900481019282620000ea576000855562000136565b82601f106200010557805160ff191683800117855562000136565b8280016001018555821562000136579182015b828111156200013557825182559160200191906001019062000118565b5b50905062000145919062000149565b5090565b5b80821115620001645760008160009055506001016200014a565b5090565b600060028204905060018216806200018157607f821691505b602082108114156200019857620001976200019e565b5b50919050565b7f4e487b7100000000000000000000000000000000000000000000000000000000600052602260045260246000fd5b61274280620001dd6000396000f3fe608060405234801561001057600080fd5b50600436106100f55760003560e01c80636352211e11610097578063b88d4fde11610066578063b88d4fde14610282578063beabacc81461029e578063c87b56dd146102ba578063e985e9c5146102ea576100f5565b80636352211e146101e857806370a082311461021857806395d89b4114610248578063a22cb46514610266576100f5565b8063095ea7b3116100d3578063095ea7b31461017857806323b872dd1461019457806340c10f19146101b057806342842e0e146101cc576100f5565b806301ffc9a7146100fa57806306fdde031461012a578063081812fc14610148575b600080fd5b610114600480360381019061010f9190611944565b61031a565b6040516101219190611d04565b60405180910390f35b6101326103fc565b60405161013f9190611d1f565b60405180910390f35b610162600480360381019061015d9190611996565b61048e565b60405161016f9190611c9d565b60405180910390f35b610192600480360381019061018d9190611908565b610513565b005b6101ae60048036038101906101a99190611802565b61062b565b005b6101ca60048036038101906101c59190611908565b61068b565b005b6101e660048036038101906101e19190611802565b6106a9565b005b61020260048036038101906101fd9190611996565b6106c9565b60405161020f9190611c9d565b60405180910390f35b610232600480360381019061022d919061179d565b61077b565b60405161023f9190611f01565b60405180910390f35b610250610833565b60405161025d9190611d1f565b60405180910390f35b610280600480360381019061027b91906118cc565b6108c5565b005b61029c60048036038101906102979190611851565b610a46565b005b6102b860048036038101906102b39190611802565b610aa8565b005b6102d460048036038101906102cf9190611996565b610ac8565b6040516102e19190611d1f565b60405180910390f35b61030460048036038101906102ff91906117c6565b610b6f565b6040516103119190611d04565b60405180910390f35b60007f80ac58cd000000000000000000000000000000000000000000000000000000007bffffffffffffffffffffffffffffffffffffffffffffffffffffffff1916827bffffffffffffffffffffffffffffffffffffffffffffffffffffffff191614806103e557507f5b5e139f000000000000000000000000000000000000000000000000000000007bffffffffffffffffffffffffffffffffffffffffffffffffffffffff1916827bffffffffffffffffffffffffffffffffffffffffffffffffffffffff1916145b806103f557506103f482610c03565b5b9050919050565b60606000805461040b90612126565b80601f016020809104026020016040519081016040528092919081815260200182805461043790612126565b80156104845780601f1061045957610100808354040283529160200191610484565b820191906000526020600020905b81548152906001019060200180831161046757829003601f168201915b5050505050905090565b600061049982610c6d565b6104d8576040517f08c379a00000000000000000000000000000000000000000000000000000000081526004016104cf90611e61565b60405180910390fd5b6004600083815260200190815260200160002060009054906101000a900473ffffffffffffffffffffffffffffffffffffffff169050919050565b600061051e826106c9565b90508073ffffffffffffffffffffffffffffffffffffffff168373ffffffffffffffffffffffffffffffffffffffff16141561058f576040517f08c379a000000000000000000000000000000000000000000000000000000000815260040161058690611ec1565b60405180910390fd5b8073ffffffffffffffffffffffffffffffffffffffff166105ae610cd9565b73ffffffffffffffffffffffffffffffffffffffff1614806105dd57506105dc816105d7610cd9565b610b6f565b5b61061c576040517f08c379a000000000000000000000000000000000000000000000000000000000815260040161061390611de1565b60405180910390fd5b6106268383610ce1565b505050565b61063c610636610cd9565b82610d9a565b61067b576040517f08c379a000000000000000000000000000000000000000000000000000000000815260040161067290611ee1565b60405180910390fd5b610686838383610e78565b505050565b6106a58282604051806020016040528060008152506110d4565b5050565b6106c483838360405180602001604052806000815250610a46565b505050565b6000806002600084815260200190815260200160002060009054906101000a900473ffffffffffffffffffffffffffffffffffffffff169050600073ffffffffffffffffffffffffffffffffffffffff168173ffffffffffffffffffffffffffffffffffffffff161415610772576040517f08c379a000000000000000000000000000000000000000000000000000000000815260040161076990611e21565b60405180910390fd5b80915050919050565b60008073ffffffffffffffffffffffffffffffffffffffff168273ffffffffffffffffffffffffffffffffffffffff1614156107ec576040517f08c379a00000000000000000000000000000000000000000000000000000000081526004016107e390611e01565b60405180910390fd5b600360008373ffffffffffffffffffffffffffffffffffffffff1673ffffffffffffffffffffffffffffffffffffffff168152602001908152602001600020549050919050565b60606001805461084290612126565b80601f016020809104026020016040519081016040528092919081815260200182805461086e90612126565b80156108bb5780601f10610890576101008083540402835291602001916108bb565b820191906000526020600020905b81548152906001019060200180831161089e57829003601f168201915b5050505050905090565b6108cd610cd9565b73ffffffffffffffffffffffffffffffffffffffff168273ffffffffffffffffffffffffffffffffffffffff16141561093b576040517f08c379a000000000000000000000000000000000000000000000000000000000815260040161093290611da1565b60405180910390fd5b8060056000610948610cd9565b73ffffffffffffffffffffffffffffffffffffffff1673ffffffffffffffffffffffffffffffffffffffff16815260200190815260200160002060008473ffffffffffffffffffffffffffffffffffffffff1673ffffffffffffffffffffffffffffffffffffffff16815260200190815260200160002060006101000a81548160ff0219169083151502179055508173ffffffffffffffffffffffffffffffffffffffff166109f5610cd9565b73ffffffffffffffffffffffffffffffffffffffff167f17307eab39ab6107e8899845ad3d59bd9653f200f220920489ca2b5937696c3183604051610a3a9190611d04565b60405180910390a35050565b610a57610a51610cd9565b83610d9a565b610a96576040517f08c379a0000000000000000000000000000000000000000000000000000000008152600401610a8d90611ee1565b60405180910390fd5b610aa28484848461112f565b50505050565b610ac38383836040518060200160405280600081525061112f565b505050565b6060610ad382610c6d565b610b12576040517f08c379a0000000000000000000000000000000000000000000000000000000008152600401610b0990611ea1565b60405180910390fd5b6000610b1c61118b565b90506000815111610b3c5760405180602001604052806000815250610b67565b80610b46846111a2565b604051602001610b57929190611c79565b6040516020818303038152906040525b915050919050565b6000600560008473ffffffffffffffffffffffffffffffffffffffff1673ffffffffffffffffffffffffffffffffffffffff16815260200190815260200160002060008373ffffffffffffffffffffffffffffffffffffffff1673ffffffffffffffffffffffffffffffffffffffff16815260200190815260200160002060009054906101000a900460ff16905092915050565b60007f01ffc9a7000000000000000000000000000000000000000000000000000000007bffffffffffffffffffffffffffffffffffffffffffffffffffffffff1916827bffffffffffffffffffffffffffffffffffffffffffffffffffffffff1916149050919050565b60008073ffffffffffffffffffffffffffffffffffffffff166002600084815260200190815260200160002060009054906101000a900473ffffffffffffffffffffffffffffffffffffffff1673ffffffffffffffffffffffffffffffffffffffff1614159050919050565b600033905090565b816004600083815260200190815260200160002060006101000a81548173ffffffffffffffffffffffffffffffffffffffff021916908373ffffffffffffffffffffffffffffffffffffffff160217905550808273ffffffffffffffffffffffffffffffffffffffff16610d54836106c9565b73ffffffffffffffffffffffffffffffffffffffff167f8c5be1e5ebec7d5bd14f71427d1e84f3dd0314c0f7b2291e5b200ac8c7c3b92560405160405180910390a45050565b6000610da582610c6d565b610de4576040517f08c379a0000000000000000000000000000000000000000000000000000000008152600401610ddb90611dc1565b60405180910390fd5b6000610def836106c9565b90508073ffffffffffffffffffffffffffffffffffffffff168473ffffffffffffffffffffffffffffffffffffffff161480610e5e57508373ffffffffffffffffffffffffffffffffffffffff16610e468461048e565b73ffffffffffffffffffffffffffffffffffffffff16145b80610e6f5750610e6e8185610b6f565b5b91505092915050565b8273ffffffffffffffffffffffffffffffffffffffff16610e98826106c9565b73ffffffffffffffffffffffffffffffffffffffff1614610eee576040517f08c379a0000000000000000000000000000000000000000000000000000000008152600401610ee590611e81565b60405180910390fd5b600073ffffffffffffffffffffffffffffffffffffffff168273ffffffffffffffffffffffffffffffffffffffff161415610f5e576040517f08c379a0000000000000000000000000000000000000000000000000000000008152600401610f5590611d81565b60405180910390fd5b610f6983838361134f565b610f74600082610ce1565b6001600360008573ffffffffffffffffffffffffffffffffffffffff1673ffffffffffffffffffffffffffffffffffffffff1681526020019081526020016000206000828254610fc4919061203c565b925050819055506001600360008473ffffffffffffffffffffffffffffffffffffffff1673ffffffffffffffffffffffffffffffffffffffff168152602001908152602001600020600082825461101b9190611fb5565b92505081905550816002600083815260200190815260200160002060006101000a81548173ffffffffffffffffffffffffffffffffffffffff021916908373ffffffffffffffffffffffffffffffffffffffff160217905550808273ffffffffffffffffffffffffffffffffffffffff168473ffffffffffffffffffffffffffffffffffffffff167fddf252ad1be2c89b69c2b068fc378daa952ba7f163c4a11628f55a4df523b3ef60405160405180910390a4505050565b6110de8383611354565b6110eb6000848484611522565b61112a576040517f08c379a000000000000000000000000000000000000000000000000000000000815260040161112190611d41565b60405180910390fd5b505050565b61113a848484610e78565b61114684848484611522565b611185576040517f08c379a000000000000000000000000000000000000000000000000000000000815260040161117c90611d41565b60405180910390fd5b50505050565b606060405180602001604052806000815250905090565b606060008214156111ea576040518060400160405280600181526020017f3000000000000000000000000000000000000000000000000000000000000000815250905061134a565b600082905060005b6000821461121c57808061120590612189565b915050600a82611215919061200b565b91506111f2565b60008167ffffffffffffffff81111561125e577f4e487b7100000000000000000000000000000000000000000000000000000000600052604160045260246000fd5b6040519080825280601f01601f1916602001820160405280156112905781602001600182028036833780820191505090505b5090505b60008514611343576001826112a9919061203c565b9150600a856112b891906121d2565b60306112c49190611fb5565b60f81b818381518110611300577f4e487b7100000000000000000000000000000000000000000000000000000000600052603260045260246000fd5b60200101907effffffffffffffffffffffffffffffffffffffffffffffffffffffffffffff1916908160001a905350600a8561133c919061200b565b9450611294565b8093505050505b919050565b505050565b600073ffffffffffffffffffffffffffffffffffffffff168273ffffffffffffffffffffffffffffffffffffffff1614156113c4576040517f08c379a00000000000000000000000000000000000000000000000000000000081526004016113bb90611e41565b60405180910390fd5b6113cd81610c6d565b1561140d576040517f08c379a000000000000000000000000000000000000000000000000000000000815260040161140490611d61565b60405180910390fd5b6114196000838361134f565b6001600360008473ffffffffffffffffffffffffffffffffffffffff1673ffffffffffffffffffffffffffffffffffffffff16815260200190815260200160002060008282546114699190611fb5565b92505081905550816002600083815260200190815260200160002060006101000a81548173ffffffffffffffffffffffffffffffffffffffff021916908373ffffffffffffffffffffffffffffffffffffffff160217905550808273ffffffffffffffffffffffffffffffffffffffff16600073ffffffffffffffffffffffffffffffffffffffff167fddf252ad1be2c89b69c2b068fc378daa952ba7f163c4a11628f55a4df523b3ef60405160405180910390a45050565b60006115438473ffffffffffffffffffffffffffffffffffffffff166116b9565b156116ac578373ffffffffffffffffffffffffffffffffffffffff1663150b7a0261156c610cd9565b8786866040518563ffffffff1660e01b815260040161158e9493929190611cb8565b602060405180830381600087803b1580156115a857600080fd5b505af19250505080156115d957506040513d601f19601f820116820180604052508101906115d6919061196d565b60015b61165c573d8060008114611609576040519150601f19603f3d011682016040523d82523d6000602084013e61160e565b606091505b50600081511415611654576040517f08c379a000000000000000000000000000000000000000000000000000000000815260040161164b90611d41565b60405180910390fd5b805181602001fd5b63150b7a0260e01b7bffffffffffffffffffffffffffffffffffffffffffffffffffffffff1916817bffffffffffffffffffffffffffffffffffffffffffffffffffffffff1916149150506116b1565b600190505b949350505050565b600080823b905060008111915050919050565b60006116df6116da84611f41565b611f1c565b9050828152602081018484840111156116f757600080fd5b6117028482856120e4565b509392505050565b600081359050611719816126b0565b92915050565b60008135905061172e816126c7565b92915050565b600081359050611743816126de565b92915050565b600081519050611758816126de565b92915050565b600082601f83011261176f57600080fd5b813561177f8482602086016116cc565b91505092915050565b600081359050611797816126f5565b92915050565b6000602082840312156117af57600080fd5b60006117bd8482850161170a565b91505092915050565b600080604083850312156117d957600080fd5b60006117e78582860161170a565b92505060206117f88582860161170a565b9150509250929050565b60008060006060848603121561181757600080fd5b60006118258682870161170a565b93505060206118368682870161170a565b925050604061184786828701611788565b9150509250925092565b6000806000806080858703121561186757600080fd5b60006118758782880161170a565b94505060206118868782880161170a565b935050604061189787828801611788565b925050606085013567ffffffffffffffff8111156118b457600080fd5b6118c08782880161175e565b91505092959194509250565b600080604083850312156118df57600080fd5b60006118ed8582860161170a565b92505060206118fe8582860161171f565b9150509250929050565b6000806040838503121561191b57600080fd5b60006119298582860161170a565b925050602061193a85828601611788565b9150509250929050565b60006020828403121561195657600080fd5b600061196484828501611734565b91505092915050565b60006020828403121561197f57600080fd5b600061198d84828501611749565b91505092915050565b6000602082840312156119a857600080fd5b60006119b684828501611788565b91505092915050565b6119c881612070565b82525050565b6119d781612082565b82525050565b60006119e882611f72565b6119f28185611f88565b9350611a028185602086016120f3565b611a0b816122bf565b840191505092915050565b6000611a2182611f7d565b611a2b8185611f99565b9350611a3b8185602086016120f3565b611a44816122bf565b840191505092915050565b6000611a5a82611f7d565b611a648185611faa565b9350611a748185602086016120f3565b80840191505092915050565b6000611a8d603283611f99565b9150611a98826122d0565b604082019050919050565b6000611ab0601c83611f99565b9150611abb8261231f565b602082019050919050565b6000611ad3602483611f99565b9150611ade82612348565b604082019050919050565b6000611af6601983611f99565b9150611b0182612397565b602082019050919050565b6000611b19602c83611f99565b9150611b24826123c0565b604082019050919050565b6000611b3c603883611f99565b9150611b478261240f565b604082019050919050565b6000611b5f602a83611f99565b9150611b6a8261245e565b604082019050919050565b6000611b82602983611f99565b9150611b8d826124ad565b604082019050919050565b6000611ba5602083611f99565b9150611bb0826124fc565b602082019050919050565b6000611bc8602c83611f99565b9150611bd382612525565b604082019050919050565b6000611beb602983611f99565b9150611bf682612574565b604082019050919050565b6000611c0e602f83611f99565b9150611c19826125c3565b604082019050919050565b6000611c31602183611f99565b9150611c3c82612612565b604082019050919050565b6000611c54603183611f99565b9150611c5f82612661565b604082019050919050565b611c73816120da565b82525050565b6000611c858285611a4f565b9150611c918284611a4f565b91508190509392505050565b6000602082019050611cb260008301846119bf565b92915050565b6000608082019050611ccd60008301876119bf565b611cda60208301866119bf565b611ce76040830185611c6a565b8181036060830152611cf981846119dd565b905095945050505050565b6000602082019050611d1960008301846119ce565b92915050565b60006020820190508181036000830152611d398184611a16565b905092915050565b60006020820190508181036000830152611d5a81611a80565b9050919050565b60006020820190508181036000830152611d7a81611aa3565b9050919050565b60006020820190508181036000830152611d9a81611ac6565b9050919050565b60006020820190508181036000830152611dba81611ae9565b9050919050565b60006020820190508181036000830152611dda81611b0c565b9050919050565b60006020820190508181036000830152611dfa81611b2f565b9050919050565b60006020820190508181036000830152611e1a81611b52565b9050919050565b60006020820190508181036000830152611e3a81611b75565b9050919050565b60006020820190508181036000830152611e5a81611b98565b9050919050565b60006020820190508181036000830152611e7a81611bbb565b9050919050565b60006020820190508181036000830152611e9a81611bde565b9050919050565b60006020820190508181036000830152611eba81611c01565b9050919050565b60006020820190508181036000830152611eda81611c24565b9050919050565b60006020820190508181036000830152611efa81611c47565b9050919050565b6000602082019050611f166000830184611c6a565b92915050565b6000611f26611f37565b9050611f328282612158565b919050565b6000604051905090565b600067ffffffffffffffff821115611f5c57611f5b612290565b5b611f65826122bf565b9050602081019050919050565b600081519050919050565b600081519050919050565b600082825260208201905092915050565b600082825260208201905092915050565b600081905092915050565b6000611fc0826120da565b9150611fcb836120da565b9250827fffffffffffffffffffffffffffffffffffffffffffffffffffffffffffffffff0382111561200057611fff612203565b5b828201905092915050565b6000612016826120da565b9150612021836120da565b92508261203157612030612232565b5b828204905092915050565b6000612047826120da565b9150612052836120da565b92508282101561206557612064612203565b5b828203905092915050565b600061207b826120ba565b9050919050565b60008115159050919050565b60007fffffffff0000000000000000000000000000000000000000000000000000000082169050919050565b600073ffffffffffffffffffffffffffffffffffffffff82169050919050565b6000819050919050565b82818337600083830152505050565b60005b838110156121115780820151818401526020810190506120f6565b83811115612120576000848401525b50505050565b6000600282049050600182168061213e57607f821691505b6020821081141561215257612151612261565b5b50919050565b612161826122bf565b810181811067ffffffffffffffff821117156121805761217f612290565b5b80604052505050565b6000612194826120da565b91507fffffffffffffffffffffffffffffffffffffffffffffffffffffffffffffffff8214156121c7576121c6612203565b5b600182019050919050565b60006121dd826120da565b91506121e8836120da565b9250826121f8576121f7612232565b5b828206905092915050565b7f4e487b7100000000000000000000000000000000000000000000000000000000600052601160045260246000fd5b7f4e487b7100000000000000000000000000000000000000000000000000000000600052601260045260246000fd5b7f4e487b7100000000000000000000000000000000000000000000000000000000600052602260045260246000fd5b7f4e487b7100000000000000000000000000000000000000000000000000000000600052604160045260246000fd5b6000601f19601f8301169050919050565b7f4552433732313a207472616e7366657220746f206e6f6e20455243373231526560008201527f63656976657220696d706c656d656e7465720000000000000000000000000000602082015250565b7f4552433732313a20746f6b656e20616c7265616479206d696e74656400000000600082015250565b7f4552433732313a207472616e7366657220746f20746865207a65726f2061646460008201527f7265737300000000000000000000000000000000000000000000000000000000602082015250565b7f4552433732313a20617070726f766520746f2063616c6c657200000000000000600082015250565b7f4552433732313a206f70657261746f7220717565727920666f72206e6f6e657860008201527f697374656e7420746f6b656e0000000000000000000000000000000000000000602082015250565b7f4552433732313a20617070726f76652063616c6c6572206973206e6f74206f7760008201527f6e6572206e6f7220617070726f76656420666f7220616c6c0000000000000000602082015250565b7f4552433732313a2062616c616e636520717565727920666f7220746865207a6560008201527f726f206164647265737300000000000000000000000000000000000000000000602082015250565b7f4552433732313a206f776e657220717565727920666f72206e6f6e657869737460008201527f656e7420746f6b656e0000000000000000000000000000000000000000000000602082015250565b7f4552433732313a206d696e7420746f20746865207a65726f2061646472657373600082015250565b7f4552433732313a20617070726f76656420717565727920666f72206e6f6e657860008201527f697374656e7420746f6b656e0000000000000000000000000000000000000000602082015250565b7f4552433732313a207472616e73666572206f6620746f6b656e2074686174206960008201527f73206e6f74206f776e0000000000000000000000000000000000000000000000602082015250565b7f4552433732314d657461646174613a2055524920717565727920666f72206e6f60008201527f6e6578697374656e7420746f6b656e0000000000000000000000000000000000602082015250565b7f4552433732313a20617070726f76616c20746f2063757272656e74206f776e6560008201527f7200000000000000000000000000000000000000000000000000000000000000602082015250565b7f4552433732313a207472616e736665722063616c6c6572206973206e6f74206f60008201527f776e6572206e6f7220617070726f766564000000000000000000000000000000602082015250565b6126b981612070565b81146126c457600080fd5b50565b6126d081612082565b81146126db57600080fd5b50565b6126e78161208e565b81146126f257600080fd5b50565b6126fe816120da565b811461270957600080fd5b5056fea26469706673582212206a875f3b1766a8241b6bd9b8c6a86b90e0e844c0bf06f09aa40562ee739f5fd364736f6c63430008040033",
  "linkReferences": {},
  "deployedLinkReferences": {}
}