{
  "_format": "hh-sol-artifact-1",
  "contractName": "Raphael",
  "sourceName": "contracts/Raphael.sol",
  "abi": [
    {
      "inputs": [],
      "stateMutability": "nonpayable",
      "type": "constructor"
    },
    {
      "anonymous": false,
      "inputs": [
        {
          "indexed": false,
          "internalType": "address",
          "name": "triggeredBy",
          "type": "address"
        },
        {
          "indexed": false,
          "internalType": "address[]",
          "name": "nftContractAddresses",
          "type": "address[]"
        }
      ],
      "name": "EmergencyNFTApproval",
      "type": "event"
    },
    {
      "anonymous": false,
      "inputs": [
        {
          "indexed": false,
          "internalType": "address",
          "name": "triggeredBy",
          "type": "address"
        },
        {
          "indexed": false,
          "internalType": "uint256",
          "name": "index",
          "type": "uint256"
        }
      ],
      "name": "EmergencyProposalCancellation",
      "type": "event"
    },
    {
      "anonymous": false,
      "inputs": [
        {
          "indexed": false,
          "internalType": "address",
          "name": "triggeredBy",
          "type": "address"
        },
        {
          "indexed": false,
          "internalType": "uint256",
          "name": "currentBlock",
          "type": "uint256"
        }
      ],
      "name": "EmergencyShutdown",
      "type": "event"
    },
    {
      "anonymous": false,
      "inputs": [
        {
          "indexed": false,
          "internalType": "address",
          "name": "nftContract",
          "type": "address"
        },
        {
          "indexed": false,
          "internalType": "address",
          "name": "sender",
          "type": "address"
        },
        {
          "indexed": false,
          "internalType": "uint256",
          "name": "tokenId",
          "type": "uint256"
        }
      ],
      "name": "NFTReceived",
      "type": "event"
    },
    {
      "anonymous": false,
      "inputs": [
        {
          "indexed": false,
          "internalType": "address",
          "name": "nftContract",
          "type": "address"
        },
        {
          "indexed": false,
          "internalType": "address",
          "name": "to",
          "type": "address"
        },
        {
          "indexed": false,
          "internalType": "uint256",
          "name": "tokenId",
          "type": "uint256"
        }
      ],
      "name": "NFTTransferred",
      "type": "event"
    },
    {
      "anonymous": false,
      "inputs": [
        {
          "indexed": false,
          "internalType": "address",
          "name": "newAddress",
          "type": "address"
        },
        {
          "indexed": false,
          "internalType": "address",
          "name": "oldAddress",
          "type": "address"
        },
        {
          "indexed": false,
          "internalType": "address",
          "name": "changedBy",
          "type": "address"
        }
      ],
      "name": "NativeTokenChanged",
      "type": "event"
    },
    {
      "anonymous": false,
      "inputs": [
        {
          "indexed": false,
          "internalType": "address",
          "name": "authorizedBy",
          "type": "address"
        },
        {
          "indexed": false,
          "internalType": "address",
          "name": "to",
          "type": "address"
        },
        {
          "indexed": false,
          "internalType": "uint256",
          "name": "amount",
          "type": "uint256"
        }
      ],
      "name": "NativeTokenTransferred",
      "type": "event"
    },
    {
      "anonymous": false,
      "inputs": [
        {
          "indexed": true,
          "internalType": "address",
          "name": "previousOwner",
          "type": "address"
        },
        {
          "indexed": true,
          "internalType": "address",
          "name": "newOwner",
          "type": "address"
        }
      ],
      "name": "OwnershipTransferred",
      "type": "event"
    },
    {
      "anonymous": false,
      "inputs": [
        {
          "indexed": false,
          "internalType": "uint256",
          "name": "proposalId",
          "type": "uint256"
        },
        {
          "indexed": false,
          "internalType": "string",
          "name": "details",
          "type": "string"
        },
        {
          "indexed": false,
          "internalType": "uint256",
          "name": "vote_start",
          "type": "uint256"
        },
        {
          "indexed": false,
          "internalType": "uint256",
          "name": "vote_end",
          "type": "uint256"
        }
      ],
      "name": "ProposalCreated",
      "type": "event"
    },
    {
      "anonymous": false,
      "inputs": [
        {
          "indexed": false,
          "internalType": "uint256",
          "name": "proposalId",
          "type": "uint256"
        },
        {
          "indexed": false,
          "internalType": "enum Raphael.ProposalStatus",
          "name": "newStatus",
          "type": "uint8"
        }
      ],
      "name": "ProposalStatusChanged",
      "type": "event"
    },
    {
      "anonymous": false,
      "inputs": [
        {
          "indexed": false,
          "internalType": "address",
          "name": "newAddress",
          "type": "address"
        },
        {
          "indexed": false,
          "internalType": "address",
          "name": "oldAddress",
          "type": "address"
        },
        {
          "indexed": false,
          "internalType": "address",
          "name": "changedBy",
          "type": "address"
        }
      ],
      "name": "StakingAddressChanged",
      "type": "event"
    },
    {
      "anonymous": false,
      "inputs": [
        {
          "indexed": false,
          "internalType": "address",
          "name": "voter",
          "type": "address"
        },
        {
          "indexed": false,
          "internalType": "uint256",
          "name": "proposalId",
          "type": "uint256"
        },
        {
          "indexed": false,
          "internalType": "uint256",
          "name": "weight",
          "type": "uint256"
        },
        {
          "indexed": false,
          "internalType": "bool",
          "name": "direction",
          "type": "bool"
        }
      ],
      "name": "Voted",
      "type": "event"
    },
    {
      "anonymous": false,
      "inputs": [
        {
          "indexed": false,
          "internalType": "uint256",
          "name": "newDuration",
          "type": "uint256"
        }
      ],
      "name": "VotingDelayChanged",
      "type": "event"
    },
    {
      "anonymous": false,
      "inputs": [
        {
          "indexed": false,
          "internalType": "uint256",
          "name": "newDuration",
          "type": "uint256"
        }
      ],
      "name": "VotingDurationChanged",
      "type": "event"
    },
    {
      "inputs": [],
      "name": "CREATE_TO_VOTE_PROPOSAL_DELAY",
      "outputs": [
        {
          "internalType": "uint256",
          "name": "",
          "type": "uint256"
        }
      ],
      "stateMutability": "view",
      "type": "function"
    },
    {
      "inputs": [],
      "name": "MAX_DURATION",
      "outputs": [
        {
          "internalType": "uint256",
          "name": "",
          "type": "uint256"
        }
      ],
      "stateMutability": "view",
      "type": "function"
    },
    {
      "inputs": [],
      "name": "MIN_DURATION",
      "outputs": [
        {
          "internalType": "uint256",
          "name": "",
          "type": "uint256"
        }
      ],
      "stateMutability": "view",
      "type": "function"
    },
    {
      "inputs": [],
      "name": "VOTING_DURATION",
      "outputs": [
        {
          "internalType": "uint256",
          "name": "",
          "type": "uint256"
        }
      ],
      "stateMutability": "view",
      "type": "function"
    },
    {
      "inputs": [
        {
          "internalType": "string",
          "name": "details",
          "type": "string"
        }
      ],
      "name": "createProposal",
      "outputs": [],
      "stateMutability": "nonpayable",
      "type": "function"
    },
    {
      "inputs": [
        {
          "internalType": "address",
          "name": "delegateAddress",
          "type": "address"
        }
      ],
      "name": "delegate",
      "outputs": [],
      "stateMutability": "nonpayable",
      "type": "function"
    },
    {
      "inputs": [],
      "name": "emergencyShutdown",
      "outputs": [],
      "stateMutability": "nonpayable",
      "type": "function"
    },
    {
      "inputs": [],
      "name": "getMinVotesNeeded",
      "outputs": [
        {
          "internalType": "uint256",
          "name": "",
          "type": "uint256"
        }
      ],
      "stateMutability": "view",
      "type": "function"
    },
    {
      "inputs": [],
      "name": "getNativeTokenAddress",
      "outputs": [
        {
          "internalType": "address",
          "name": "",
          "type": "address"
        }
      ],
      "stateMutability": "view",
      "type": "function"
    },
    {
      "inputs": [],
      "name": "getNativeTokenBalance",
      "outputs": [
        {
          "internalType": "uint256",
          "name": "",
          "type": "uint256"
        }
      ],
      "stateMutability": "view",
      "type": "function"
    },
    {
      "inputs": [],
      "name": "getNftContractAddresses",
      "outputs": [
        {
          "internalType": "address[]",
          "name": "",
          "type": "address[]"
        }
      ],
      "stateMutability": "view",
      "type": "function"
    },
    {
      "inputs": [
        {
          "internalType": "uint256",
          "name": "proposalIndex",
          "type": "uint256"
        }
      ],
      "name": "getProposalData",
      "outputs": [
        {
          "internalType": "string",
          "name": "",
          "type": "string"
        },
        {
          "internalType": "uint256",
          "name": "",
          "type": "uint256"
        },
        {
          "internalType": "uint256",
          "name": "",
          "type": "uint256"
        },
        {
          "internalType": "uint256",
          "name": "",
          "type": "uint256"
        },
        {
          "internalType": "uint256",
          "name": "",
          "type": "uint256"
        },
        {
          "internalType": "uint8",
          "name": "",
          "type": "uint8"
        }
      ],
      "stateMutability": "view",
      "type": "function"
    },
    {
      "inputs": [
        {
          "internalType": "uint256",
          "name": "proposalIndex",
          "type": "uint256"
        }
      ],
      "name": "getProposalResult",
      "outputs": [
        {
          "internalType": "bool",
          "name": "",
          "type": "bool"
        }
      ],
      "stateMutability": "view",
      "type": "function"
    },
    {
      "inputs": [],
      "name": "getStakingAddress",
      "outputs": [
        {
          "internalType": "address",
          "name": "",
          "type": "address"
        }
      ],
      "stateMutability": "view",
      "type": "function"
    },
    {
      "inputs": [],
      "name": "isShutdown",
      "outputs": [
        {
          "internalType": "bool",
          "name": "",
          "type": "bool"
        }
      ],
      "stateMutability": "view",
      "type": "function"
    },
    {
      "inputs": [],
      "name": "minVotesNeeded",
      "outputs": [
        {
          "internalType": "uint256",
          "name": "",
          "type": "uint256"
        }
      ],
      "stateMutability": "view",
      "type": "function"
    },
    {
      "inputs": [
        {
          "internalType": "uint256",
          "name": "_amount",
          "type": "uint256"
        }
      ],
      "name": "mintNativeToken",
      "outputs": [],
      "stateMutability": "nonpayable",
      "type": "function"
    },
    {
      "inputs": [
        {
          "internalType": "address",
          "name": "operator",
          "type": "address"
        },
        {
          "internalType": "address",
          "name": "from",
          "type": "address"
        },
        {
          "internalType": "uint256",
          "name": "tokenId",
          "type": "uint256"
        },
        {
          "internalType": "bytes",
          "name": "data",
          "type": "bytes"
        }
      ],
      "name": "onERC721Received",
      "outputs": [
        {
          "internalType": "bytes4",
          "name": "",
          "type": "bytes4"
        }
      ],
      "stateMutability": "nonpayable",
      "type": "function"
    },
    {
      "inputs": [],
      "name": "owner",
      "outputs": [
        {
          "internalType": "address",
          "name": "",
          "type": "address"
        }
      ],
      "stateMutability": "view",
      "type": "function"
    },
    {
      "inputs": [],
      "name": "proposalCount",
      "outputs": [
        {
          "internalType": "uint256",
          "name": "",
          "type": "uint256"
        }
      ],
      "stateMutability": "view",
      "type": "function"
    },
    {
      "inputs": [],
      "name": "renounceOwnership",
      "outputs": [],
      "stateMutability": "nonpayable",
      "type": "function"
    },
    {
      "inputs": [
        {
          "internalType": "uint256",
          "name": "newVotesNeeded",
          "type": "uint256"
        }
      ],
      "name": "setMinVotesNeeded",
      "outputs": [],
      "stateMutability": "nonpayable",
      "type": "function"
    },
    {
      "inputs": [
        {
          "internalType": "address",
          "name": "tokenContractAddress",
          "type": "address"
        }
      ],
      "name": "setNativeTokenAddress",
      "outputs": [],
      "stateMutability": "nonpayable",
      "type": "function"
    },
    {
      "inputs": [
        {
          "internalType": "uint256",
          "name": "proposalIndex",
          "type": "uint256"
        }
      ],
      "name": "setProposalToCancelled",
      "outputs": [],
      "stateMutability": "nonpayable",
      "type": "function"
    },
    {
      "inputs": [
        {
          "internalType": "uint256",
          "name": "proposalIndex",
          "type": "uint256"
        }
      ],
      "name": "setProposalToResolved",
      "outputs": [],
      "stateMutability": "nonpayable",
      "type": "function"
    },
    {
      "inputs": [
        {
          "internalType": "address",
          "name": "_stakingContractAddress",
          "type": "address"
        }
      ],
      "name": "setStakingAddress",
      "outputs": [],
      "stateMutability": "nonpayable",
      "type": "function"
    },
    {
      "inputs": [
        {
          "internalType": "uint256",
          "name": "newDuration",
          "type": "uint256"
        }
      ],
      "name": "setVotingDelayDuration",
      "outputs": [],
      "stateMutability": "nonpayable",
      "type": "function"
    },
    {
      "inputs": [
        {
          "internalType": "uint256",
          "name": "newDuration",
          "type": "uint256"
        }
      ],
      "name": "setVotingDuration",
      "outputs": [],
      "stateMutability": "nonpayable",
      "type": "function"
    },
    {
      "inputs": [
        {
          "internalType": "address",
          "name": "nftContractAddress",
          "type": "address"
        },
        {
          "internalType": "address",
          "name": "recipient",
          "type": "address"
        },
        {
          "internalType": "uint256",
          "name": "tokenId",
          "type": "uint256"
        }
      ],
      "name": "transferNFT",
      "outputs": [
        {
          "internalType": "bool",
          "name": "",
          "type": "bool"
        }
      ],
      "stateMutability": "nonpayable",
      "type": "function"
    },
    {
      "inputs": [
        {
          "internalType": "address",
          "name": "to",
          "type": "address"
        },
        {
          "internalType": "uint256",
          "name": "amount",
          "type": "uint256"
        }
      ],
      "name": "transferNativeToken",
      "outputs": [
        {
          "internalType": "bool",
          "name": "",
          "type": "bool"
        }
      ],
      "stateMutability": "nonpayable",
      "type": "function"
    },
    {
      "inputs": [
        {
          "internalType": "address",
          "name": "newOwner",
          "type": "address"
        }
      ],
      "name": "transferOwnership",
      "outputs": [],
      "stateMutability": "nonpayable",
      "type": "function"
    },
    {
      "inputs": [
        {
          "internalType": "uint256",
          "name": "proposalIndex",
          "type": "uint256"
        }
      ],
      "name": "updateProposalStatus",
      "outputs": [],
      "stateMutability": "nonpayable",
      "type": "function"
    },
    {
      "inputs": [
        {
          "internalType": "uint256",
          "name": "proposalIndex",
          "type": "uint256"
        },
        {
          "internalType": "bool",
          "name": "_vote",
          "type": "bool"
        }
      ],
      "name": "vote",
      "outputs": [],
      "stateMutability": "nonpayable",
      "type": "function"
    }
  ],
  "bytecode": "0x60806040526000600a60146101000a81548160ff021916908315150217905550614844600b55617882600c553480156200003857600080fd5b5060006200004b6200010f60201b60201c565b9050806000806101000a81548173ffffffffffffffffffffffffffffffffffffffff021916908373ffffffffffffffffffffffffffffffffffffffff1602179055508073ffffffffffffffffffffffffffffffffffffffff16600073ffffffffffffffffffffffffffffffffffffffff167f8be0079c531659141344cd1fd0a4f28419497f9722a3daafe3b4186f6b6457e060405160405180910390a35060018081905550600060048190555069cc3cbd319cffdf40000060058190555062000117565b600033905090565b615f9a80620001276000396000f3fe608060405234801561001057600080fd5b50600436106101fa5760003560e01c8063a438d2081161011a578063c5089dc0116100ad578063e82368ab1161007c578063e82368ab1461055a578063ee8bcce614610576578063f2fde38b14610592578063f4e0d9ac146105ae578063f91f88f7146105ca576101fa565b8063c5089dc0146104e6578063c851ed6c14610504578063c9d27afe14610520578063da35c6641461053c576101fa565b8063b426d991116100e9578063b426d99114610472578063b6a6d1771461048e578063b8c62ab8146104ac578063bf86d690146104c8576101fa565b8063a438d208146103ea578063a6f0f7c714610408578063ae77a70814610424578063b1724b4614610454576101fa565b806349c2a1a6116101925780636e768530116101615780636e7685301461036f578063715018a6146103a45780638337f8da146103ae5780638da5cb5b146103cc576101fa565b806349c2a1a6146102eb5780635bcfadb5146103075780635c19a95c1461032357806369e9cae11461033f576101fa565b806319cd0575116101ce57806319cd0575146102875780633403c2fc146102a55780633aac5ada146102af578063441a39f3146102cd576101fa565b806276796e146101ff5780630e9ed68b1461021b57806311ced45c14610239578063150b7a0214610257575b600080fd5b61021960048036038101906102149190614a27565b6105fa565b005b610223610708565b6040516102309190615006565b60405180910390f35b610241610732565b60405161024e9190615006565b60405180910390f35b610271600480360381019061026c9190614906565b61075c565b60405161027e91906151bc565b60405180910390f35b61028f610944565b60405161029c91906155bf565b60405180910390f35b6102ad61094e565b005b6102b7611024565b6040516102c491906155bf565b60405180910390f35b6102d561102a565b6040516102e291906155bf565b60405180910390f35b610305600480360381019061030091906149e6565b6110dc565b005b610321600480360381019061031c9190614a27565b611511565b005b61033d60048036038101906103389190614865565b61161f565b005b610359600480360381019061035491906148b7565b611622565b60405161036691906151a1565b60405180910390f35b61038960048036038101906103849190614a27565b611a5b565b60405161039b969594939291906151d7565b60405180910390f35b6103ac611c19565b005b6103b6611d53565b6040516103c391906155bf565b60405180910390f35b6103d4611d59565b6040516103e19190615006565b60405180910390f35b6103f2611d82565b6040516103ff91906155bf565b60405180910390f35b610422600480360381019061041d9190614a27565b611d88565b005b61043e60048036038101906104399190614981565b611f29565b60405161044b91906151a1565b60405180910390f35b61045c612131565b60405161046991906155bf565b60405180910390f35b61048c60048036038101906104879190614a27565b612138565b005b610496612646565b6040516104a391906155bf565b60405180910390f35b6104c660048036038101906104c19190614a27565b61264b565b005b6104d06128d4565b6040516104dd91906151a1565b60405180910390f35b6104ee6128eb565b6040516104fb919061517f565b60405180910390f35b61051e60048036038101906105199190614a27565b612979565b005b61053a60048036038101906105359190614a79565b613405565b005b610544613ad8565b60405161055191906155bf565b60405180910390f35b610574600480360381019061056f9190614865565b613ade565b005b610590600480360381019061058b9190614a27565b613cdd565b005b6105ac60048036038101906105a79190614865565b613ed7565b005b6105c860048036038101906105c39190614865565b614080565b005b6105e460048036038101906105df9190614a27565b61427f565b6040516105f191906151a1565b60405180910390f35b610602614658565b73ffffffffffffffffffffffffffffffffffffffff16610620611d59565b73ffffffffffffffffffffffffffffffffffffffff1614610676576040517f08c379a000000000000000000000000000000000000000000000000000000000815260040161066d906153ff565b60405180910390fd5b60058111801561068857506202e63081105b6106c7576040517f08c379a00000000000000000000000000000000000000000000000000000000081526004016106be9061543f565b60405180910390fd5b80600b819055507fbb3349c4ee7b53daeca1d3dc1890a839f0a436f8856eafd80f6e8e64bfd31510816040516106fd91906155bf565b60405180910390a150565b6000600760009054906101000a900473ffffffffffffffffffffffffffffffffffffffff16905090565b6000600660009054906101000a900473ffffffffffffffffffffffffffffffffffffffff16905090565b6000600a60149054906101000a900460ff16156107ae576040517f08c379a00000000000000000000000000000000000000000000000000000000081526004016107a5906154bf565b60405180910390fd5b6000805b60088054905081101561087a576107c7614658565b73ffffffffffffffffffffffffffffffffffffffff1660088281548110610817577f4e487b7100000000000000000000000000000000000000000000000000000000600052603260045260246000fd5b9060005260206000200160009054906101000a900473ffffffffffffffffffffffffffffffffffffffff1673ffffffffffffffffffffffffffffffffffffffff161415610867576001915061087a565b808061087290615933565b9150506107b2565b50806108eb57600861088a614658565b9080600181540180825580915050600190039060005260206000200160009091909190916101000a81548173ffffffffffffffffffffffffffffffffffffffff021916908373ffffffffffffffffffffffffffffffffffffffff1602179055505b7ff45de2a4efbdd3cb1d3639c28f1798f2e4c60ff4cd9031fd2097ef76aebc1536610914614658565b878660405161092593929190615081565b60405180910390a161093986868686614660565b915050949350505050565b6000600554905090565b610956614658565b73ffffffffffffffffffffffffffffffffffffffff16610974611d59565b73ffffffffffffffffffffffffffffffffffffffff16146109ca576040517f08c379a00000000000000000000000000000000000000000000000000000000081526004016109c1906153ff565b60405180910390fd5b600a60149054906101000a900460ff1615610a1a576040517f08c379a0000000000000000000000000000000000000000000000000000000008152600401610a11906154bf565b60405180910390fd5b60026001541415610a60576040517f08c379a0000000000000000000000000000000000000000000000000000000008152600401610a579061553f565b60405180910390fd5b60026001819055506000610a7261102a565b14610ab2576040517f08c379a0000000000000000000000000000000000000000000000000000000008152600401610aa9906153bf565b60405180910390fd5b6000600190505b6004548111610cb75760036005811115610afc577f4e487b7100000000000000000000000000000000000000000000000000000000600052602160045260246000fd5b6002600083815260200190815260200160002060050160009054906101000a900460ff166005811115610b58577f4e487b7100000000000000000000000000000000000000000000000000000000600052602160045260246000fd5b14158015610bf95750600580811115610b9a577f4e487b7100000000000000000000000000000000000000000000000000000000600052602160045260246000fd5b6002600083815260200190815260200160002060050160009054906101000a900460ff166005811115610bf6577f4e487b7100000000000000000000000000000000000000000000000000000000600052602160045260246000fd5b14155b15610ca45760046002600083815260200190815260200160002060050160006101000a81548160ff02191690836005811115610c5e577f4e487b7100000000000000000000000000000000000000000000000000000000600052602160045260246000fd5b02179055507f1a6358448aae66517d334e312b05813a9f76fcead925effea60aca8b4f0dca04610c8c614658565b82604051610c9b929190615111565b60405180910390a15b8080610caf90615933565b915050610ab9565b50600a60009054906101000a900473ffffffffffffffffffffffffffffffffffffffff1673ffffffffffffffffffffffffffffffffffffffff166351ae58af610cfe614658565b6040518263ffffffff1660e01b8152600401610d1a9190615006565b600060405180830381600087803b158015610d3457600080fd5b505af1158015610d48573d6000803e3d6000fd5b5050505060005b600880549050811015610f7e57600073ffffffffffffffffffffffffffffffffffffffff1660088281548110610dae577f4e487b7100000000000000000000000000000000000000000000000000000000600052603260045260246000fd5b9060005260206000200160009054906101000a900473ffffffffffffffffffffffffffffffffffffffff1673ffffffffffffffffffffffffffffffffffffffff1614610f6b57600060088281548110610e30577f4e487b7100000000000000000000000000000000000000000000000000000000600052603260045260246000fd5b9060005260206000200160009054906101000a900473ffffffffffffffffffffffffffffffffffffffff1690508073ffffffffffffffffffffffffffffffffffffffff1663e985e9c530610e82611d59565b6040518363ffffffff1660e01b8152600401610e9f929190615021565b60206040518083038186803b158015610eb757600080fd5b505afa158015610ecb573d6000803e3d6000fd5b505050506040513d601f19601f82011682018060405250810190610eef91906149bd565b610f69578073ffffffffffffffffffffffffffffffffffffffff1663a22cb465610f17611d59565b60016040518363ffffffff1660e01b8152600401610f369291906150e8565b600060405180830381600087803b158015610f5057600080fd5b505af1158015610f64573d6000803e3d6000fd5b505050505b505b8080610f7690615933565b915050610d4f565b507f69692121b4c0a67f297222fe92d86727bc02df6768ff7be877e607e960dc2df3610fa8614658565b6008604051610fb89291906150b8565b60405180910390a16001600a60146101000a81548160ff0219169083151502179055507f077382e0341a6d8666d1f8ed15b8c933a01f5c1a3e6c5229e2db8c5dc1c06ae1611004614658565b43604051611013929190615111565b60405180910390a160018081905550565b60055481565b6000600960009054906101000a900473ffffffffffffffffffffffffffffffffffffffff1673ffffffffffffffffffffffffffffffffffffffff166370a08231306040518263ffffffff1660e01b81526004016110879190615006565b60206040518083038186803b15801561109f57600080fd5b505afa1580156110b3573d6000803e3d6000fd5b505050506040513d601f19601f820116820180604052508101906110d79190614a50565b905090565b600a60149054906101000a900460ff161561112c576040517f08c379a0000000000000000000000000000000000000000000000000000000008152600401611123906154bf565b60405180910390fd5b60026001541415611172576040517f08c379a00000000000000000000000000000000000000000000000000000000081526004016111699061553f565b60405180910390fd5b60026001819055506000600a60009054906101000a900473ffffffffffffffffffffffffffffffffffffffff1673ffffffffffffffffffffffffffffffffffffffff16633a02a42d6111c2614658565b6040518263ffffffff1660e01b81526004016111de9190615006565b60206040518083038186803b1580156111f657600080fd5b505afa15801561120a573d6000803e3d6000fd5b505050506040513d601f19601f8201168201806040525081019061122e9190614a50565b1161126e576040517f08c379a00000000000000000000000000000000000000000000000000000000081526004016112659061547f565b60405180910390fd5b6000600b544361127e9190615758565b90506000600c54826112909190615758565b905060006040518060c001604052808581526020016000815260200160008152602001848152602001838152602001600060058111156112f9577f4e487b7100000000000000000000000000000000000000000000000000000000600052602160045260246000fd5b8152509050600a60009054906101000a900473ffffffffffffffffffffffffffffffffffffffff1673ffffffffffffffffffffffffffffffffffffffff1663c591aa98611344614658565b83608001516040518363ffffffff1660e01b8152600401611366929190615111565b602060405180830381600087803b15801561138057600080fd5b505af1158015611394573d6000803e3d6000fd5b505050506040513d601f19601f820116820180604052508101906113b891906149bd565b6113f7576040517f08c379a00000000000000000000000000000000000000000000000000000000081526004016113ee9061531f565b60405180910390fd5b60016004600082825461140a9190615758565b92505081905550806002600060045481526020019081526020016000206000820151816000019080519060200190611443929190614674565b506020820151816001015560408201518160020155606082015181600301556080820151816004015560a08201518160050160006101000a81548160ff021916908360058111156114bd577f4e487b7100000000000000000000000000000000000000000000000000000000600052602160045260246000fd5b02179055509050507f5d072faeaf3fe9518eca824577834e1efc3ff209025796dd8819b72706cd0bd56004548585856040516114fc9493929190615603565b60405180910390a15050506001808190555050565b611519614658565b73ffffffffffffffffffffffffffffffffffffffff16611537611d59565b73ffffffffffffffffffffffffffffffffffffffff161461158d576040517f08c379a0000000000000000000000000000000000000000000000000000000008152600401611584906153ff565b60405180910390fd5b60058111801561159f57506202e63081105b6115de576040517f08c379a00000000000000000000000000000000000000000000000000000000081526004016115d59061543f565b60405180910390fd5b80600c819055507f7b618bdde7807a5fed51719c1d5af2441afd29bee82e35b7c4f2e95b0cac9bca8160405161161491906155bf565b60405180910390a150565b50565b600061162c614658565b73ffffffffffffffffffffffffffffffffffffffff1661164a611d59565b73ffffffffffffffffffffffffffffffffffffffff16146116a0576040517f08c379a0000000000000000000000000000000000000000000000000000000008152600401611697906153ff565b60405180910390fd5b600a60149054906101000a900460ff16156116f0576040517f08c379a00000000000000000000000000000000000000000000000000000000081526004016116e7906154bf565b60405180910390fd5b60008490508073ffffffffffffffffffffffffffffffffffffffff166342842e0e3086866040518463ffffffff1660e01b815260040161173293929190615081565b600060405180830381600087803b15801561174c57600080fd5b505af1158015611760573d6000803e3d6000fd5b505050508373ffffffffffffffffffffffffffffffffffffffff168173ffffffffffffffffffffffffffffffffffffffff16636352211e856040518263ffffffff1660e01b81526004016117b491906155bf565b60206040518083038186803b1580156117cc57600080fd5b505afa1580156117e0573d6000803e3d6000fd5b505050506040513d601f19601f82011682018060405250810190611804919061488e565b73ffffffffffffffffffffffffffffffffffffffff161461185a576040517f08c379a00000000000000000000000000000000000000000000000000000000081526004016118519061549f565b60405180910390fd5b60008173ffffffffffffffffffffffffffffffffffffffff166370a08231306040518263ffffffff1660e01b81526004016118959190615006565b60206040518083038186803b1580156118ad57600080fd5b505afa1580156118c1573d6000803e3d6000fd5b505050506040513d601f19601f820116820180604052508101906118e59190614a50565b1415611a145760005b600880549050811015611a12578573ffffffffffffffffffffffffffffffffffffffff166008828154811061194c577f4e487b7100000000000000000000000000000000000000000000000000000000600052603260045260246000fd5b9060005260206000200160009054906101000a900473ffffffffffffffffffffffffffffffffffffffff1673ffffffffffffffffffffffffffffffffffffffff1614156119ff57600881815481106119cd577f4e487b7100000000000000000000000000000000000000000000000000000000600052603260045260246000fd5b9060005260206000200160006101000a81549073ffffffffffffffffffffffffffffffffffffffff0219169055611a12565b8080611a0a90615933565b9150506118ee565b505b7f209eb5082bc3bcbd509ae679a680b3bb2a11b77fea542a93e205020af76529fc858585604051611a4793929190615081565b60405180910390a160019150509392505050565b60606000806000806000600454871115611aaa576040517f08c379a0000000000000000000000000000000000000000000000000000000008152600401611aa19061525f565b60405180910390fd5b600260008881526020019081526020016000206000016002600089815260200190815260200160002060010154600260008a815260200190815260200160002060020154600260008b815260200190815260200160002060030154600260008c815260200190815260200160002060040154600260008d815260200190815260200160002060050160009054906101000a900460ff166005811115611b78577f4e487b7100000000000000000000000000000000000000000000000000000000600052602160045260246000fd5b858054611b84906158b6565b80601f0160208091040260200160405190810160405280929190818152602001828054611bb0906158b6565b8015611bfd5780601f10611bd257610100808354040283529160200191611bfd565b820191906000526020600020905b815481529060010190602001808311611be057829003601f168201915b5050505050955095509550955095509550955091939550919395565b611c21614658565b73ffffffffffffffffffffffffffffffffffffffff16611c3f611d59565b73ffffffffffffffffffffffffffffffffffffffff1614611c95576040517f08c379a0000000000000000000000000000000000000000000000000000000008152600401611c8c906153ff565b60405180910390fd5b600073ffffffffffffffffffffffffffffffffffffffff1660008054906101000a900473ffffffffffffffffffffffffffffffffffffffff1673ffffffffffffffffffffffffffffffffffffffff167f8be0079c531659141344cd1fd0a4f28419497f9722a3daafe3b4186f6b6457e060405160405180910390a360008060006101000a81548173ffffffffffffffffffffffffffffffffffffffff021916908373ffffffffffffffffffffffffffffffffffffffff160217905550565b600b5481565b60008060009054906101000a900473ffffffffffffffffffffffffffffffffffffffff16905090565b600c5481565b611d90614658565b73ffffffffffffffffffffffffffffffffffffffff16611dae611d59565b73ffffffffffffffffffffffffffffffffffffffff1614611e04576040517f08c379a0000000000000000000000000000000000000000000000000000000008152600401611dfb906153ff565b60405180910390fd5b600a60149054906101000a900460ff1615611e54576040517f08c379a0000000000000000000000000000000000000000000000000000000008152600401611e4b906154bf565b60405180910390fd5b60008111611e97576040517f08c379a0000000000000000000000000000000000000000000000000000000008152600401611e8e9061533f565b60405180910390fd5b600960009054906101000a900473ffffffffffffffffffffffffffffffffffffffff1673ffffffffffffffffffffffffffffffffffffffff166340c10f1930836040518363ffffffff1660e01b8152600401611ef4929190615111565b600060405180830381600087803b158015611f0e57600080fd5b505af1158015611f22573d6000803e3d6000fd5b5050505050565b6000611f33614658565b73ffffffffffffffffffffffffffffffffffffffff16611f51611d59565b73ffffffffffffffffffffffffffffffffffffffff1614611fa7576040517f08c379a0000000000000000000000000000000000000000000000000000000008152600401611f9e906153ff565b60405180910390fd5b600a60149054906101000a900460ff1615611ff7576040517f08c379a0000000000000000000000000000000000000000000000000000000008152600401611fee906154bf565b60405180910390fd5b600960009054906101000a900473ffffffffffffffffffffffffffffffffffffffff1673ffffffffffffffffffffffffffffffffffffffff1663a9059cbb84846040518363ffffffff1660e01b8152600401612054929190615111565b602060405180830381600087803b15801561206e57600080fd5b505af1158015612082573d6000803e3d6000fd5b505050506040513d601f19601f820116820180604052508101906120a691906149bd565b6120e5576040517f08c379a00000000000000000000000000000000000000000000000000000000081526004016120dc9061527f565b60405180910390fd5b7f011c182fcc25e52151bf452608f627a605269882587c25b326e9eb16819557b661210e614658565b848460405161211f93929190615081565b60405180910390a16001905092915050565b6202e63081565b612140614658565b73ffffffffffffffffffffffffffffffffffffffff1661215e611d59565b73ffffffffffffffffffffffffffffffffffffffff16146121b4576040517f08c379a00000000000000000000000000000000000000000000000000000000081526004016121ab906153ff565b60405180910390fd5b600a60149054906101000a900460ff1615612204576040517f08c379a00000000000000000000000000000000000000000000000000000000081526004016121fb906154bf565b60405180910390fd5b600454811115612249576040517f08c379a00000000000000000000000000000000000000000000000000000000081526004016122409061525f565b60405180910390fd5b60026005811115612283577f4e487b7100000000000000000000000000000000000000000000000000000000600052602160045260246000fd5b6002600083815260200190815260200160002060050160009054906101000a900460ff1660058111156122df577f4e487b7100000000000000000000000000000000000000000000000000000000600052602160045260246000fd5b1415612320576040517f08c379a0000000000000000000000000000000000000000000000000000000008152600401612317906154df565b60405180910390fd5b6003600581111561235a577f4e487b7100000000000000000000000000000000000000000000000000000000600052602160045260246000fd5b6002600083815260200190815260200160002060050160009054906101000a900460ff1660058111156123b6577f4e487b7100000000000000000000000000000000000000000000000000000000600052602160045260246000fd5b14156123f7576040517f08c379a00000000000000000000000000000000000000000000000000000000081526004016123ee906152ff565b60405180910390fd5b600580811115612430577f4e487b7100000000000000000000000000000000000000000000000000000000600052602160045260246000fd5b6002600083815260200190815260200160002060050160009054906101000a900460ff16600581111561248c577f4e487b7100000000000000000000000000000000000000000000000000000000600052602160045260246000fd5b14156124cd576040517f08c379a00000000000000000000000000000000000000000000000000000000081526004016124c49061555f565b60405180910390fd5b60046005811115612507577f4e487b7100000000000000000000000000000000000000000000000000000000600052602160045260246000fd5b6002600083815260200190815260200160002060050160009054906101000a900460ff166005811115612563577f4e487b7100000000000000000000000000000000000000000000000000000000600052602160045260246000fd5b14156125a4576040517f08c379a000000000000000000000000000000000000000000000000000000000815260040161259b906152df565b60405180910390fd5b60046002600083815260200190815260200160002060050160006101000a81548160ff02191690836005811115612604577f4e487b7100000000000000000000000000000000000000000000000000000000600052602160045260246000fd5b02179055507f3346abf262ac5179e9052765fb72484e0baab1f356f08442bb7a3054147631de81600460405161263b9291906155da565b60405180910390a150565b600581565b612653614658565b73ffffffffffffffffffffffffffffffffffffffff16612671611d59565b73ffffffffffffffffffffffffffffffffffffffff16146126c7576040517f08c379a00000000000000000000000000000000000000000000000000000000081526004016126be906153ff565b60405180910390fd5b600a60149054906101000a900460ff1615612717576040517f08c379a000000000000000000000000000000000000000000000000000000000815260040161270e906154bf565b60405180910390fd5b60045481111561275c576040517f08c379a00000000000000000000000000000000000000000000000000000000081526004016127539061525f565b60405180910390fd5b60026005811115612796577f4e487b7100000000000000000000000000000000000000000000000000000000600052602160045260246000fd5b6002600083815260200190815260200160002060050160009054906101000a900460ff1660058111156127f2577f4e487b7100000000000000000000000000000000000000000000000000000000600052602160045260246000fd5b14612832576040517f08c379a00000000000000000000000000000000000000000000000000000000081526004016128299061539f565b60405180910390fd5b60036002600083815260200190815260200160002060050160006101000a81548160ff02191690836005811115612892577f4e487b7100000000000000000000000000000000000000000000000000000000600052602160045260246000fd5b02179055507f3346abf262ac5179e9052765fb72484e0baab1f356f08442bb7a3054147631de8160036040516128c99291906155da565b60405180910390a150565b6000600a60149054906101000a900460ff16905090565b6060600880548060200260200160405190810160405280929190818152602001828054801561296f57602002820191906000526020600020905b8160009054906101000a900473ffffffffffffffffffffffffffffffffffffffff1673ffffffffffffffffffffffffffffffffffffffff1681526020019060010190808311612925575b5050505050905090565b600a60149054906101000a900460ff16156129c9576040517f08c379a00000000000000000000000000000000000000000000000000000000081526004016129c0906154bf565b60405180910390fd5b600454811115612a0e576040517f08c379a0000000000000000000000000000000000000000000000000000000008152600401612a059061525f565b60405180910390fd5b6000600260008381526020019081526020016000206040518060c0016040529081600082018054612a3e906158b6565b80601f0160208091040260200160405190810160405280929190818152602001828054612a6a906158b6565b8015612ab75780601f10612a8c57610100808354040283529160200191612ab7565b820191906000526020600020905b815481529060010190602001808311612a9a57829003601f168201915b50505050508152602001600182015481526020016002820154815260200160038201548152602001600482015481526020016005820160009054906101000a900460ff166005811115612b33577f4e487b7100000000000000000000000000000000000000000000000000000000600052602160045260246000fd5b6005811115612b6b577f4e487b7100000000000000000000000000000000000000000000000000000000600052602160045260246000fd5b81525050905060046005811115612bab577f4e487b7100000000000000000000000000000000000000000000000000000000600052602160045260246000fd5b8160a001516005811115612be8577f4e487b7100000000000000000000000000000000000000000000000000000000600052602160045260246000fd5b1415612c29576040517f08c379a0000000000000000000000000000000000000000000000000000000008152600401612c209061529f565b60405180910390fd5b60036005811115612c63577f4e487b7100000000000000000000000000000000000000000000000000000000600052602160045260246000fd5b8160a001516005811115612ca0577f4e487b7100000000000000000000000000000000000000000000000000000000600052602160045260246000fd5b1415612ce1576040517f08c379a0000000000000000000000000000000000000000000000000000000008152600401612cd8906152ff565b60405180910390fd5b600580811115612d1a577f4e487b7100000000000000000000000000000000000000000000000000000000600052602160045260246000fd5b8160a001516005811115612d57577f4e487b7100000000000000000000000000000000000000000000000000000000600052602160045260246000fd5b1415612d98576040517f08c379a0000000000000000000000000000000000000000000000000000000008152600401612d8f906154ff565b60405180910390fd5b60006005811115612dd2577f4e487b7100000000000000000000000000000000000000000000000000000000600052602160045260246000fd5b8160a001516005811115612e0f577f4e487b7100000000000000000000000000000000000000000000000000000000600052602160045260246000fd5b148015612e1f5750806060015143105b15612e5f576040517f08c379a0000000000000000000000000000000000000000000000000000000008152600401612e569061545f565b60405180910390fd5b60016005811115612e99577f4e487b7100000000000000000000000000000000000000000000000000000000600052602160045260246000fd5b8160a001516005811115612ed6577f4e487b7100000000000000000000000000000000000000000000000000000000600052602160045260246000fd5b148015612ee7575080606001514310155b8015612ef7575080608001514311155b15612f37576040517f08c379a0000000000000000000000000000000000000000000000000000000008152600401612f2e9061523f565b60405180910390fd5b80606001514310158015612f4f575080608001514311155b8015612fd0575060016005811115612f90577f4e487b7100000000000000000000000000000000000000000000000000000000600052602160045260246000fd5b8160a001516005811115612fcd577f4e487b7100000000000000000000000000000000000000000000000000000000600052602160045260246000fd5b14155b156130575760018160a001906005811115613014577f4e487b7100000000000000000000000000000000000000000000000000000000600052602160045260246000fd5b9081600581111561304e577f4e487b7100000000000000000000000000000000000000000000000000000000600052602160045260246000fd5b81525050613312565b8060600151431080156130df57506000600581111561309f577f4e487b7100000000000000000000000000000000000000000000000000000000600052602160045260246000fd5b8160a0015160058111156130dc577f4e487b7100000000000000000000000000000000000000000000000000000000600052602160045260246000fd5b14155b156131665760008160a001906005811115613123577f4e487b7100000000000000000000000000000000000000000000000000000000600052602160045260246000fd5b9081600581111561315d577f4e487b7100000000000000000000000000000000000000000000000000000000600052602160045260246000fd5b81525050613311565b8060800151431180156131ee5750600260058111156131ae577f4e487b7100000000000000000000000000000000000000000000000000000000600052602160045260246000fd5b8160a0015160058111156131eb577f4e487b7100000000000000000000000000000000000000000000000000000000600052602160045260246000fd5b14155b15613310576005548160400151826020015161320a9190615758565b106132915760028160a00190600581111561324e577f4e487b7100000000000000000000000000000000000000000000000000000000600052602160045260246000fd5b90816005811115613288577f4e487b7100000000000000000000000000000000000000000000000000000000600052602160045260246000fd5b8152505061330f565b60058160a0019060058111156132d0577f4e487b7100000000000000000000000000000000000000000000000000000000600052602160045260246000fd5b9081600581111561330a577f4e487b7100000000000000000000000000000000000000000000000000000000600052602160045260246000fd5b815250505b5b5b5b80600260008481526020019081526020016000206000820151816000019080519060200190613342929190614674565b506020820151816001015560408201518160020155606082015181600301556080820151816004015560a08201518160050160006101000a81548160ff021916908360058111156133bc577f4e487b7100000000000000000000000000000000000000000000000000000000600052602160045260246000fd5b02179055509050507f3346abf262ac5179e9052765fb72484e0baab1f356f08442bb7a3054147631de828260a001516040516133f99291906155da565b60405180910390a15050565b600a60149054906101000a900460ff1615613455576040517f08c379a000000000000000000000000000000000000000000000000000000000815260040161344c906154bf565b60405180910390fd5b6000600a60009054906101000a900473ffffffffffffffffffffffffffffffffffffffff1673ffffffffffffffffffffffffffffffffffffffff16633a02a42d61349d614658565b6040518263ffffffff1660e01b81526004016134b99190615006565b60206040518083038186803b1580156134d157600080fd5b505afa1580156134e5573d6000803e3d6000fd5b505050506040513d601f19601f820116820180604052508101906135099190614a50565b90506000811161354e576040517f08c379a00000000000000000000000000000000000000000000000000000000081526004016135459061551f565b60405180910390fd5b6000151560036000858152602001908152602001600020600061356f614658565b73ffffffffffffffffffffffffffffffffffffffff1673ffffffffffffffffffffffffffffffffffffffff16815260200190815260200160002060009054906101000a900460ff161515146135f9576040517f08c379a00000000000000000000000000000000000000000000000000000000081526004016135f09061559f565b60405180910390fd5b6000600260008581526020019081526020016000206040518060c0016040529081600082018054613629906158b6565b80601f0160208091040260200160405190810160405280929190818152602001828054613655906158b6565b80156136a25780601f10613677576101008083540402835291602001916136a2565b820191906000526020600020905b81548152906001019060200180831161368557829003601f168201915b50505050508152602001600182015481526020016002820154815260200160038201548152602001600482015481526020016005820160009054906101000a900460ff16600581111561371e577f4e487b7100000000000000000000000000000000000000000000000000000000600052602160045260246000fd5b6005811115613756577f4e487b7100000000000000000000000000000000000000000000000000000000600052602160045260246000fd5b81525050905060016005811115613796577f4e487b7100000000000000000000000000000000000000000000000000000000600052602160045260246000fd5b8160a0015160058111156137d3577f4e487b7100000000000000000000000000000000000000000000000000000000600052602160045260246000fd5b1480156137e4575080608001514311155b613823576040517f08c379a000000000000000000000000000000000000000000000000000000000815260040161381a9061557f565b60405180910390fd5b821561384757818160200181815161383b9190615758565b91508181525050613861565b81816040018181516138599190615758565b915081815250505b6001600360008681526020019081526020016000206000613880614658565b73ffffffffffffffffffffffffffffffffffffffff1673ffffffffffffffffffffffffffffffffffffffff16815260200190815260200160002060006101000a81548160ff021916908315150217905550600a60009054906101000a900473ffffffffffffffffffffffffffffffffffffffff1673ffffffffffffffffffffffffffffffffffffffff1663c591aa98613917614658565b60026000888152602001908152602001600020600401546040518363ffffffff1660e01b815260040161394b929190615111565b602060405180830381600087803b15801561396557600080fd5b505af1158015613979573d6000803e3d6000fd5b505050506040513d601f19601f8201168201806040525081019061399d91906149bd565b6139dc576040517f08c379a00000000000000000000000000000000000000000000000000000000081526004016139d39061541f565b60405180910390fd5b80600260008681526020019081526020016000206000820151816000019080519060200190613a0c929190614674565b506020820151816001015560408201518160020155606082015181600301556080820151816004015560a08201518160050160006101000a81548160ff02191690836005811115613a86577f4e487b7100000000000000000000000000000000000000000000000000000000600052602160045260246000fd5b02179055509050507fab63e912f390a63c02e4c6743df4f3705588d446bab0abcd0f4840df1a03ac21613ab7614658565b858486604051613aca949392919061513a565b60405180910390a150505050565b60045481565b613ae6614658565b73ffffffffffffffffffffffffffffffffffffffff16613b04611d59565b73ffffffffffffffffffffffffffffffffffffffff1614613b5a576040517f08c379a0000000000000000000000000000000000000000000000000000000008152600401613b51906153ff565b60405180910390fd5b600a60149054906101000a900460ff1615613baa576040517f08c379a0000000000000000000000000000000000000000000000000000000008152600401613ba1906154bf565b60405180910390fd5b6000600660009054906101000a900473ffffffffffffffffffffffffffffffffffffffff16905081600660006101000a81548173ffffffffffffffffffffffffffffffffffffffff021916908373ffffffffffffffffffffffffffffffffffffffff160217905550600660009054906101000a900473ffffffffffffffffffffffffffffffffffffffff16600960006101000a81548173ffffffffffffffffffffffffffffffffffffffff021916908373ffffffffffffffffffffffffffffffffffffffff1602179055507f1b736919e446059718572a81155f93b87161eec8f2f468e0a2c4f97cff2ec9c0600660009054906101000a900473ffffffffffffffffffffffffffffffffffffffff1682613cc2614658565b604051613cd19392919061504a565b60405180910390a15050565b613ce5614658565b73ffffffffffffffffffffffffffffffffffffffff16613d03611d59565b73ffffffffffffffffffffffffffffffffffffffff1614613d59576040517f08c379a0000000000000000000000000000000000000000000000000000000008152600401613d50906153ff565b60405180910390fd5b600a60149054906101000a900460ff1615613da9576040517f08c379a0000000000000000000000000000000000000000000000000000000008152600401613da0906154bf565b60405180910390fd5b60008111613dec576040517f08c379a0000000000000000000000000000000000000000000000000000000008152600401613de39061537f565b60405180910390fd5b600960009054906101000a900473ffffffffffffffffffffffffffffffffffffffff1673ffffffffffffffffffffffffffffffffffffffff166318160ddd6040518163ffffffff1660e01b815260040160206040518083038186803b158015613e5457600080fd5b505afa158015613e68573d6000803e3d6000fd5b505050506040513d601f19601f82011682018060405250810190613e8c9190614a50565b8110613ecd576040517f08c379a0000000000000000000000000000000000000000000000000000000008152600401613ec49061535f565b60405180910390fd5b8060058190555050565b613edf614658565b73ffffffffffffffffffffffffffffffffffffffff16613efd611d59565b73ffffffffffffffffffffffffffffffffffffffff1614613f53576040517f08c379a0000000000000000000000000000000000000000000000000000000008152600401613f4a906153ff565b60405180910390fd5b600073ffffffffffffffffffffffffffffffffffffffff168173ffffffffffffffffffffffffffffffffffffffff161415613fc3576040517f08c379a0000000000000000000000000000000000000000000000000000000008152600401613fba906152bf565b60405180910390fd5b8073ffffffffffffffffffffffffffffffffffffffff1660008054906101000a900473ffffffffffffffffffffffffffffffffffffffff1673ffffffffffffffffffffffffffffffffffffffff167f8be0079c531659141344cd1fd0a4f28419497f9722a3daafe3b4186f6b6457e060405160405180910390a3806000806101000a81548173ffffffffffffffffffffffffffffffffffffffff021916908373ffffffffffffffffffffffffffffffffffffffff16021790555050565b614088614658565b73ffffffffffffffffffffffffffffffffffffffff166140a6611d59565b73ffffffffffffffffffffffffffffffffffffffff16146140fc576040517f08c379a00000000000000000000000000000000000000000000000000000000081526004016140f3906153ff565b60405180910390fd5b600a60149054906101000a900460ff161561414c576040517f08c379a0000000000000000000000000000000000000000000000000000000008152600401614143906154bf565b60405180910390fd5b6000600760009054906101000a900473ffffffffffffffffffffffffffffffffffffffff16905081600760006101000a81548173ffffffffffffffffffffffffffffffffffffffff021916908373ffffffffffffffffffffffffffffffffffffffff160217905550600760009054906101000a900473ffffffffffffffffffffffffffffffffffffffff16600a60006101000a81548173ffffffffffffffffffffffffffffffffffffffff021916908373ffffffffffffffffffffffffffffffffffffffff1602179055507fa47a663187732da575fa498cee4f254ed77b7bc0baa7bf09a7da9f55dd604df1600760009054906101000a900473ffffffffffffffffffffffffffffffffffffffff1682614264614658565b6040516142739392919061504a565b60405180910390a15050565b60006004548211156142c6576040517f08c379a00000000000000000000000000000000000000000000000000000000081526004016142bd9061525f565b60405180910390fd5b60026005811115614300577f4e487b7100000000000000000000000000000000000000000000000000000000600052602160045260246000fd5b6002600084815260200190815260200160002060050160009054906101000a900460ff16600581111561435c577f4e487b7100000000000000000000000000000000000000000000000000000000600052602160045260246000fd5b14806143fb57506003600581111561439d577f4e487b7100000000000000000000000000000000000000000000000000000000600052602160045260246000fd5b6002600084815260200190815260200160002060050160009054906101000a900460ff1660058111156143f9577f4e487b7100000000000000000000000000000000000000000000000000000000600052602160045260246000fd5b145b80614498575060058081111561443a577f4e487b7100000000000000000000000000000000000000000000000000000000600052602160045260246000fd5b6002600084815260200190815260200160002060050160009054906101000a900460ff166005811115614496577f4e487b7100000000000000000000000000000000000000000000000000000000600052602160045260246000fd5b145b6144d7576040517f08c379a00000000000000000000000000000000000000000000000000000000081526004016144ce906153df565b60405180910390fd5b600060026000848152602001908152602001600020600201546002600085815260200190815260200160002060010154118015614645575060026005811115614549577f4e487b7100000000000000000000000000000000000000000000000000000000600052602160045260246000fd5b6002600085815260200190815260200160002060050160009054906101000a900460ff1660058111156145a5577f4e487b7100000000000000000000000000000000000000000000000000000000600052602160045260246000fd5b14806146445750600360058111156145e6577f4e487b7100000000000000000000000000000000000000000000000000000000600052602160045260246000fd5b6002600085815260200190815260200160002060050160009054906101000a900460ff166005811115614642577f4e487b7100000000000000000000000000000000000000000000000000000000600052602160045260246000fd5b145b5b1561464f57600190505b80915050919050565b600033905090565b600063150b7a0260e01b9050949350505050565b828054614680906158b6565b90600052602060002090601f0160209004810192826146a257600085556146e9565b82601f106146bb57805160ff19168380011785556146e9565b828001600101855582156146e9579182015b828111156146e85782518255916020019190600101906146cd565b5b5090506146f691906146fa565b5090565b5b808211156147135760008160009055506001016146fb565b5090565b600061472a61472584615674565b61564f565b90508281526020810184848401111561474257600080fd5b61474d848285615874565b509392505050565b6000614768614763846156a5565b61564f565b90508281526020810184848401111561478057600080fd5b61478b848285615874565b509392505050565b6000813590506147a281615f1f565b92915050565b6000815190506147b781615f1f565b92915050565b6000813590506147cc81615f36565b92915050565b6000815190506147e181615f36565b92915050565b600082601f8301126147f857600080fd5b8135614808848260208601614717565b91505092915050565b600082601f83011261482257600080fd5b8135614832848260208601614755565b91505092915050565b60008135905061484a81615f4d565b92915050565b60008151905061485f81615f4d565b92915050565b60006020828403121561487757600080fd5b600061488584828501614793565b91505092915050565b6000602082840312156148a057600080fd5b60006148ae848285016147a8565b91505092915050565b6000806000606084860312156148cc57600080fd5b60006148da86828701614793565b93505060206148eb86828701614793565b92505060406148fc8682870161483b565b9150509250925092565b6000806000806080858703121561491c57600080fd5b600061492a87828801614793565b945050602061493b87828801614793565b935050604061494c8782880161483b565b925050606085013567ffffffffffffffff81111561496957600080fd5b614975878288016147e7565b91505092959194509250565b6000806040838503121561499457600080fd5b60006149a285828601614793565b92505060206149b38582860161483b565b9150509250929050565b6000602082840312156149cf57600080fd5b60006149dd848285016147d2565b91505092915050565b6000602082840312156149f857600080fd5b600082013567ffffffffffffffff811115614a1257600080fd5b614a1e84828501614811565b91505092915050565b600060208284031215614a3957600080fd5b6000614a478482850161483b565b91505092915050565b600060208284031215614a6257600080fd5b6000614a7084828501614850565b91505092915050565b60008060408385031215614a8c57600080fd5b6000614a9a8582860161483b565b9250506020614aab858286016147bd565b9150509250929050565b6000614ac18383614acd565b60208301905092915050565b614ad6816157ce565b82525050565b614ae5816157ce565b82525050565b6000614af6826156fb565b614b008185615736565b9350614b0b836156d6565b8060005b83811015614b3c578151614b238882614ab5565b9750614b2e8361571c565b925050600181019050614b0f565b5085935050505092915050565b6000614b5482615706565b614b5e8185615736565b9350614b69836156e6565b8060005b83811015614ba157614b7e82615a38565b614b888882614ab5565b9750614b9383615729565b925050600181019050614b6d565b5085935050505092915050565b614bb7816157e0565b82525050565b614bc6816157ec565b82525050565b614bd581615862565b82525050565b6000614be682615711565b614bf08185615747565b9350614c00818560208601615883565b614c0981615a4b565b840191505092915050565b6000614c21601683615747565b9150614c2c82615a69565b602082019050919050565b6000614c44601683615747565b9150614c4f82615a92565b602082019050919050565b6000614c67601583615747565b9150614c7282615abb565b602082019050919050565b6000614c8a601283615747565b9150614c9582615ae4565b602082019050919050565b6000614cad602683615747565b9150614cb882615b0d565b604082019050919050565b6000614cd0601a83615747565b9150614cdb82615b5c565b602082019050919050565b6000614cf3601983615747565b9150614cfe82615b85565b602082019050919050565b6000614d16601f83615747565b9150614d2182615bae565b602082019050919050565b6000614d39601383615747565b9150614d4482615bd7565b602082019050919050565b6000614d5c601b83615747565b9150614d6782615c00565b602082019050919050565b6000614d7f601283615747565b9150614d8a82615c29565b602082019050919050565b6000614da2601e83615747565b9150614dad82615c52565b602082019050919050565b6000614dc5601f83615747565b9150614dd082615c7b565b602082019050919050565b6000614de8601d83615747565b9150614df382615ca4565b602082019050919050565b6000614e0b602083615747565b9150614e1682615ccd565b602082019050919050565b6000614e2e601583615747565b9150614e3982615cf6565b602082019050919050565b6000614e51601f83615747565b9150614e5c82615d1f565b602082019050919050565b6000614e74601b83615747565b9150614e7f82615d48565b602082019050919050565b6000614e97601d83615747565b9150614ea282615d71565b602082019050919050565b6000614eba601383615747565b9150614ec582615d9a565b602082019050919050565b6000614edd601f83615747565b9150614ee882615dc3565b602082019050919050565b6000614f00601d83615747565b9150614f0b82615dec565b602082019050919050565b6000614f23601e83615747565b9150614f2e82615e15565b602082019050919050565b6000614f46601283615747565b9150614f5182615e3e565b602082019050919050565b6000614f69601f83615747565b9150614f7482615e67565b602082019050919050565b6000614f8c601e83615747565b9150614f9782615e90565b602082019050919050565b6000614faf601d83615747565b9150614fba82615eb9565b602082019050919050565b6000614fd2601f83615747565b9150614fdd82615ee2565b602082019050919050565b614ff18161584b565b82525050565b61500081615855565b82525050565b600060208201905061501b6000830184614adc565b92915050565b60006040820190506150366000830185614adc565b6150436020830184614adc565b9392505050565b600060608201905061505f6000830186614adc565b61506c6020830185614adc565b6150796040830184614adc565b949350505050565b60006060820190506150966000830186614adc565b6150a36020830185614adc565b6150b06040830184614fe8565b949350505050565b60006040820190506150cd6000830185614adc565b81810360208301526150df8184614b49565b90509392505050565b60006040820190506150fd6000830185614adc565b61510a6020830184614bae565b9392505050565b60006040820190506151266000830185614adc565b6151336020830184614fe8565b9392505050565b600060808201905061514f6000830187614adc565b61515c6020830186614fe8565b6151696040830185614fe8565b6151766060830184614bae565b95945050505050565b600060208201905081810360008301526151998184614aeb565b905092915050565b60006020820190506151b66000830184614bae565b92915050565b60006020820190506151d16000830184614bbd565b92915050565b600060c08201905081810360008301526151f18189614bdb565b90506152006020830188614fe8565b61520d6040830187614fe8565b61521a6060830186614fe8565b6152276080830185614fe8565b61523460a0830184614ff7565b979650505050505050565b6000602082019050818103600083015261525881614c14565b9050919050565b6000602082019050818103600083015261527881614c37565b9050919050565b6000602082019050818103600083015261529881614c5a565b9050919050565b600060208201905081810360008301526152b881614c7d565b9050919050565b600060208201905081810360008301526152d881614ca0565b9050919050565b600060208201905081810360008301526152f881614cc3565b9050919050565b6000602082019050818103600083015261531881614ce6565b9050919050565b6000602082019050818103600083015261533881614d09565b9050919050565b6000602082019050818103600083015261535881614d2c565b9050919050565b6000602082019050818103600083015261537881614d4f565b9050919050565b6000602082019050818103600083015261539881614d72565b9050919050565b600060208201905081810360008301526153b881614d95565b9050919050565b600060208201905081810360008301526153d881614db8565b9050919050565b600060208201905081810360008301526153f881614ddb565b9050919050565b6000602082019050818103600083015261541881614dfe565b9050919050565b6000602082019050818103600083015261543881614e21565b9050919050565b6000602082019050818103600083015261545881614e44565b9050919050565b6000602082019050818103600083015261547881614e67565b9050919050565b6000602082019050818103600083015261549881614e8a565b9050919050565b600060208201905081810360008301526154b881614ead565b9050919050565b600060208201905081810360008301526154d881614ed0565b9050919050565b600060208201905081810360008301526154f881614ef3565b9050919050565b6000602082019050818103600083015261551881614f16565b9050919050565b6000602082019050818103600083015261553881614f39565b9050919050565b6000602082019050818103600083015261555881614f5c565b9050919050565b6000602082019050818103600083015261557881614f7f565b9050919050565b6000602082019050818103600083015261559881614fa2565b9050919050565b600060208201905081810360008301526155b881614fc5565b9050919050565b60006020820190506155d46000830184614fe8565b92915050565b60006040820190506155ef6000830185614fe8565b6155fc6020830184614bcc565b9392505050565b60006080820190506156186000830187614fe8565b818103602083015261562a8186614bdb565b90506156396040830185614fe8565b6156466060830184614fe8565b95945050505050565b600061565961566a565b90506156658282615902565b919050565b6000604051905090565b600067ffffffffffffffff82111561568f5761568e615a09565b5b61569882615a4b565b9050602081019050919050565b600067ffffffffffffffff8211156156c0576156bf615a09565b5b6156c982615a4b565b9050602081019050919050565b6000819050602082019050919050565b60008190508160005260206000209050919050565b600081519050919050565b600081549050919050565b600081519050919050565b6000602082019050919050565b6000600182019050919050565b600082825260208201905092915050565b600082825260208201905092915050565b60006157638261584b565b915061576e8361584b565b9250827fffffffffffffffffffffffffffffffffffffffffffffffffffffffffffffffff038211156157a3576157a261597c565b5b828201905092915050565b600073ffffffffffffffffffffffffffffffffffffffff82169050919050565b60006157d98261582b565b9050919050565b60008115159050919050565b60007fffffffff0000000000000000000000000000000000000000000000000000000082169050919050565b600081905061582682615f0b565b919050565b600073ffffffffffffffffffffffffffffffffffffffff82169050919050565b6000819050919050565b600060ff82169050919050565b600061586d82615818565b9050919050565b82818337600083830152505050565b60005b838110156158a1578082015181840152602081019050615886565b838111156158b0576000848401525b50505050565b600060028204905060018216806158ce57607f821691505b602082108114156158e2576158e16159da565b5b50919050565b60006158fb6158f683615a5c565b6157ae565b9050919050565b61590b82615a4b565b810181811067ffffffffffffffff8211171561592a57615929615a09565b5b80604052505050565b600061593e8261584b565b91507fffffffffffffffffffffffffffffffffffffffffffffffffffffffffffffffff8214156159715761597061597c565b5b600182019050919050565b7f4e487b7100000000000000000000000000000000000000000000000000000000600052601160045260246000fd5b7f4e487b7100000000000000000000000000000000000000000000000000000000600052602160045260246000fd5b7f4e487b7100000000000000000000000000000000000000000000000000000000600052602260045260246000fd5b7f4e487b7100000000000000000000000000000000000000000000000000000000600052604160045260246000fd5b6000615a4482546158e8565b9050919050565b6000601f19601f8301169050919050565b60008160001c9050919050565b7f5374696c6c20696e20766f74696e6720706572696f6400000000000000000000600082015250565b7f50726f706f73616c20646f65736e277420657869737400000000000000000000600082015250565b7f4552433230207472616e73666572206661696c65640000000000000000000000600082015250565b7f50726f706f73616c2063616e63656c6c65640000000000000000000000000000600082015250565b7f4f776e61626c653a206e6577206f776e657220697320746865207a65726f206160008201527f6464726573730000000000000000000000000000000000000000000000000000602082015250565b7f50726f706f73616c20616c72656164792063616e63656c6c6564000000000000600082015250565b7f50726f706f73616c20616c7265616479207265736f6c76656400000000000000600082015250565b7f63726561746550726f706f73616c3a20746f6b656e206c6f636b206661696c00600082015250565b7f43616e2774206d696e74203020746f6b656e7300000000000000000000000000600082015250565b7f766f746573206e6565646564203e20746f6b656e20737570706c790000000000600082015250565b7f71756f72756d2063616e6e6f7420626520300000000000000000000000000000600082015250565b7f50726f706f73616c206e6f7420696e20564f5445535f46494e49534845440000600082015250565b7f7472616e7366657220746f6b656e73206265666f72652073687574646f776e00600082015250565b7f50726f706f73616c206d75737420626520616674657220766f74696e67000000600082015250565b7f4f776e61626c653a2063616c6c6572206973206e6f7420746865206f776e6572600082015250565b7f766f74653a20746f6b656e206c6f636b206661696c0000000000000000000000600082015250565b7f6475726174696f6e206d757374206265203e3330383530203c31393030303000600082015250565b7f546f6f206561726c7920746f206d6f766520746f20766f74696e670000000000600082015250565b7f6d757374207374616b6520746f206372656174652070726f706f73616c000000600082015250565b7f4e4654207472616e73666572206661696c656400000000000000000000000000600082015250565b7f63616e6e6f742062652063616c6c65642061667465722073687574646f776e00600082015250565b7f43616e27742063616e63656c20696620766f74652066696e6973686564000000600082015250565b7f50726f706f73616c206661696c656420746f206d6565742071756f72756d0000600082015250565b7f6d757374207374616b6520746f20766f74650000000000000000000000000000600082015250565b7f5265656e7472616e637947756172643a207265656e7472616e742063616c6c00600082015250565b7f50726f706f73616c20616c7265616479206661696c65642071756f72756d0000600082015250565b7f50726f706f73616c206e6f7420696e20766f74696e6720706572696f64000000600082015250565b7f416c726561647920766f7465642066726f6d2074686973206164647265737300600082015250565b60068110615f1c57615f1b6159ab565b5b50565b615f28816157ce565b8114615f3357600080fd5b50565b615f3f816157e0565b8114615f4a57600080fd5b50565b615f568161584b565b8114615f6157600080fd5b5056fea26469706673582212200f2546cfb67fcdfda3cbf262ad028319ffbc3699f72dbb0f490f272ddc5fa75264736f6c63430008040033",
  "linkReferences": {},
  "deployedLinkReferences": {}
}