{
  "_format": "hh-sol-artifact-1",
  "contractName": "VITA",
  "sourceName": "contracts/VITA.sol",
  "abi": [
    {
      "inputs": [
        {
          "internalType": "string",
          "name": "name_",
          "type": "string"
        },
        {
          "internalType": "string",
          "name": "symbol_",
          "type": "string"
        },
        {
          "internalType": "uint256",
          "name": "cap_",
          "type": "uint256"
        }
      ],
      "stateMutability": "nonpayable",
      "type": "constructor"
    },
    {
      "anonymous": false,
      "inputs": [
        {
          "indexed": true,
          "internalType": "address",
          "name": "owner",
          "type": "address"
        },
        {
          "indexed": true,
          "internalType": "address",
          "name": "spender",
          "type": "address"
        },
        {
          "indexed": false,
          "internalType": "uint256",
          "name": "value",
          "type": "uint256"
        }
      ],
      "name": "Approval",
      "type": "event"
    },
    {
      "anonymous": false,
      "inputs": [
        {
          "indexed": true,
          "internalType": "address",
          "name": "previousOwner",
          "type": "address"
        },
        {
          "indexed": true,
          "internalType": "address",
          "name": "newOwner",
          "type": "address"
        }
      ],
      "name": "OwnershipTransferred",
      "type": "event"
    },
    {
      "anonymous": false,
      "inputs": [
        {
          "indexed": true,
          "internalType": "address",
          "name": "from",
          "type": "address"
        },
        {
          "indexed": true,
          "internalType": "address",
          "name": "to",
          "type": "address"
        },
        {
          "indexed": false,
          "internalType": "uint256",
          "name": "value",
          "type": "uint256"
        }
      ],
      "name": "Transfer",
      "type": "event"
    },
    {
      "inputs": [
        {
          "internalType": "address",
          "name": "owner",
          "type": "address"
        },
        {
          "internalType": "address",
          "name": "spender",
          "type": "address"
        }
      ],
      "name": "allowance",
      "outputs": [
        {
          "internalType": "uint256",
          "name": "",
          "type": "uint256"
        }
      ],
      "stateMutability": "view",
      "type": "function"
    },
    {
      "inputs": [
        {
          "internalType": "address",
          "name": "spender",
          "type": "address"
        },
        {
          "internalType": "uint256",
          "name": "amount",
          "type": "uint256"
        }
      ],
      "name": "approve",
      "outputs": [
        {
          "internalType": "bool",
          "name": "",
          "type": "bool"
        }
      ],
      "stateMutability": "nonpayable",
      "type": "function"
    },
    {
      "inputs": [
        {
          "internalType": "address",
          "name": "account",
          "type": "address"
        }
      ],
      "name": "balanceOf",
      "outputs": [
        {
          "internalType": "uint256",
          "name": "",
          "type": "uint256"
        }
      ],
      "stateMutability": "view",
      "type": "function"
    },
    {
      "inputs": [],
      "name": "cap",
      "outputs": [
        {
          "internalType": "uint256",
          "name": "",
          "type": "uint256"
        }
      ],
      "stateMutability": "view",
      "type": "function"
    },
    {
      "inputs": [],
      "name": "decimals",
      "outputs": [
        {
          "internalType": "uint8",
          "name": "",
          "type": "uint8"
        }
      ],
      "stateMutability": "view",
      "type": "function"
    },
    {
      "inputs": [
        {
          "internalType": "address",
          "name": "spender",
          "type": "address"
        },
        {
          "internalType": "uint256",
          "name": "subtractedValue",
          "type": "uint256"
        }
      ],
      "name": "decreaseAllowance",
      "outputs": [
        {
          "internalType": "bool",
          "name": "",
          "type": "bool"
        }
      ],
      "stateMutability": "nonpayable",
      "type": "function"
    },
    {
      "inputs": [
        {
          "internalType": "address",
          "name": "spender",
          "type": "address"
        },
        {
          "internalType": "uint256",
          "name": "addedValue",
          "type": "uint256"
        }
      ],
      "name": "increaseAllowance",
      "outputs": [
        {
          "internalType": "bool",
          "name": "",
          "type": "bool"
        }
      ],
      "stateMutability": "nonpayable",
      "type": "function"
    },
    {
      "inputs": [
        {
          "internalType": "address",
          "name": "account",
          "type": "address"
        },
        {
          "internalType": "uint256",
          "name": "amount",
          "type": "uint256"
        }
      ],
      "name": "mint",
      "outputs": [],
      "stateMutability": "nonpayable",
      "type": "function"
    },
    {
      "inputs": [],
      "name": "name",
      "outputs": [
        {
          "internalType": "string",
          "name": "",
          "type": "string"
        }
      ],
      "stateMutability": "view",
      "type": "function"
    },
    {
      "inputs": [],
      "name": "owner",
      "outputs": [
        {
          "internalType": "address",
          "name": "",
          "type": "address"
        }
      ],
      "stateMutability": "view",
      "type": "function"
    },
    {
      "inputs": [],
      "name": "renounceOwnership",
      "outputs": [],
      "stateMutability": "nonpayable",
      "type": "function"
    },
    {
      "inputs": [],
      "name": "symbol",
      "outputs": [
        {
          "internalType": "string",
          "name": "",
          "type": "string"
        }
      ],
      "stateMutability": "view",
      "type": "function"
    },
    {
      "inputs": [],
      "name": "totalSupply",
      "outputs": [
        {
          "internalType": "uint256",
          "name": "",
          "type": "uint256"
        }
      ],
      "stateMutability": "view",
      "type": "function"
    },
    {
      "inputs": [
        {
          "internalType": "address",
          "name": "recipient",
          "type": "address"
        },
        {
          "internalType": "uint256",
          "name": "amount",
          "type": "uint256"
        }
      ],
      "name": "transfer",
      "outputs": [
        {
          "internalType": "bool",
          "name": "",
          "type": "bool"
        }
      ],
      "stateMutability": "nonpayable",
      "type": "function"
    },
    {
      "inputs": [
        {
          "internalType": "address",
          "name": "sender",
          "type": "address"
        },
        {
          "internalType": "address",
          "name": "recipient",
          "type": "address"
        },
        {
          "internalType": "uint256",
          "name": "amount",
          "type": "uint256"
        }
      ],
      "name": "transferFrom",
      "outputs": [
        {
          "internalType": "bool",
          "name": "",
          "type": "bool"
        }
      ],
      "stateMutability": "nonpayable",
      "type": "function"
    },
    {
      "inputs": [
        {
          "internalType": "address",
          "name": "newOwner",
          "type": "address"
        }
      ],
      "name": "transferOwnership",
      "outputs": [],
      "stateMutability": "nonpayable",
      "type": "function"
    }
  ],
  "bytecode": "0x60c06040523480156200001157600080fd5b5060405162002218380380620022188339818101604052810190620000379190620002c0565b80838381600390805190602001906200005292919062000187565b5080600490805190602001906200006b92919062000187565b50505060008111620000b4576040517f08c379a0000000000000000000000000000000000000000000000000000000008152600401620000ab906200036f565b60405180910390fd5b8060808181525050506000620000cf6200017f60201b60201c565b905080600560006101000a81548173ffffffffffffffffffffffffffffffffffffffff021916908373ffffffffffffffffffffffffffffffffffffffff1602179055508073ffffffffffffffffffffffffffffffffffffffff16600073ffffffffffffffffffffffffffffffffffffffff167f8be0079c531659141344cd1fd0a4f28419497f9722a3daafe3b4186f6b6457e060405160405180910390a3508060a081815250505050506200055f565b600033905090565b828054620001959062000441565b90600052602060002090601f016020900481019282620001b9576000855562000205565b82601f10620001d457805160ff191683800117855562000205565b8280016001018555821562000205579182015b8281111562000204578251825591602001919060010190620001e7565b5b50905062000214919062000218565b5090565b5b808211156200023357600081600090555060010162000219565b5090565b60006200024e6200024884620003ba565b62000391565b9050828152602081018484840111156200026757600080fd5b620002748482856200040b565b509392505050565b600082601f8301126200028e57600080fd5b8151620002a084826020860162000237565b91505092915050565b600081519050620002ba8162000545565b92915050565b600080600060608486031215620002d657600080fd5b600084015167ffffffffffffffff811115620002f157600080fd5b620002ff868287016200027c565b935050602084015167ffffffffffffffff8111156200031d57600080fd5b6200032b868287016200027c565b92505060406200033e86828701620002a9565b9150509250925092565b600062000357601583620003f0565b915062000364826200051c565b602082019050919050565b600060208201905081810360008301526200038a8162000348565b9050919050565b60006200039d620003b0565b9050620003ab828262000477565b919050565b6000604051905090565b600067ffffffffffffffff821115620003d857620003d7620004dc565b5b620003e3826200050b565b9050602081019050919050565b600082825260208201905092915050565b6000819050919050565b60005b838110156200042b5780820151818401526020810190506200040e565b838111156200043b576000848401525b50505050565b600060028204905060018216806200045a57607f821691505b60208210811415620004715762000470620004ad565b5b50919050565b62000482826200050b565b810181811067ffffffffffffffff82111715620004a457620004a3620004dc565b5b80604052505050565b7f4e487b7100000000000000000000000000000000000000000000000000000000600052602260045260246000fd5b7f4e487b7100000000000000000000000000000000000000000000000000000000600052604160045260246000fd5b6000601f19601f8301169050919050565b7f45524332304361707065643a2063617020697320300000000000000000000000600082015250565b620005508162000401565b81146200055c57600080fd5b50565b60805160a051611c96620005826000396000505060006105130152611c966000f3fe608060405234801561001057600080fd5b50600436106101005760003560e01c806370a0823111610097578063a457c2d711610066578063a457c2d71461029f578063a9059cbb146102cf578063dd62ed3e146102ff578063f2fde38b1461032f57610100565b806370a0823114610229578063715018a6146102595780638da5cb5b1461026357806395d89b411461028157610100565b8063313ce567116100d3578063313ce567146101a1578063355274ea146101bf57806339509351146101dd57806340c10f191461020d57610100565b806306fdde0314610105578063095ea7b31461012357806318160ddd1461015357806323b872dd14610171575b600080fd5b61010d61034b565b60405161011a91906115b8565b60405180910390f35b61013d60048036038101906101389190611350565b6103dd565b60405161014a919061159d565b60405180910390f35b61015b6103fb565b604051610168919061173a565b60405180910390f35b61018b60048036038101906101869190611301565b610405565b604051610198919061159d565b60405180910390f35b6101a9610506565b6040516101b69190611755565b60405180910390f35b6101c761050f565b6040516101d4919061173a565b60405180910390f35b6101f760048036038101906101f29190611350565b610537565b604051610204919061159d565b60405180910390f35b61022760048036038101906102229190611350565b6105e3565b005b610243600480360381019061023e919061129c565b61066d565b604051610250919061173a565b60405180910390f35b6102616106b5565b005b61026b6107f2565b6040516102789190611582565b60405180910390f35b61028961081c565b60405161029691906115b8565b60405180910390f35b6102b960048036038101906102b49190611350565b6108ae565b6040516102c6919061159d565b60405180910390f35b6102e960048036038101906102e49190611350565b6109a2565b6040516102f6919061159d565b60405180910390f35b610319600480360381019061031491906112c5565b6109c0565b604051610326919061173a565b60405180910390f35b6103496004803603810190610344919061129c565b610a47565b005b60606003805461035a9061189e565b80601f01602080910402602001604051908101604052809291908181526020018280546103869061189e565b80156103d35780601f106103a8576101008083540402835291602001916103d3565b820191906000526020600020905b8154815290600101906020018083116103b657829003601f168201915b5050505050905090565b60006103f16103ea610bf3565b8484610bfb565b6001905092915050565b6000600254905090565b6000610412848484610dc6565b6000600160008673ffffffffffffffffffffffffffffffffffffffff1673ffffffffffffffffffffffffffffffffffffffff168152602001908152602001600020600061045d610bf3565b73ffffffffffffffffffffffffffffffffffffffff1673ffffffffffffffffffffffffffffffffffffffff168152602001908152602001600020549050828110156104dd576040517f08c379a00000000000000000000000000000000000000000000000000000000081526004016104d49061165a565b60405180910390fd5b6104fa856104e9610bf3565b85846104f591906117e2565b610bfb565b60019150509392505050565b60006012905090565b60007f0000000000000000000000000000000000000000000000000000000000000000905090565b60006105d9610544610bf3565b848460016000610552610bf3565b73ffffffffffffffffffffffffffffffffffffffff1673ffffffffffffffffffffffffffffffffffffffff16815260200190815260200160002060008873ffffffffffffffffffffffffffffffffffffffff1673ffffffffffffffffffffffffffffffffffffffff168152602001908152602001600020546105d4919061178c565b610bfb565b6001905092915050565b6105eb610bf3565b73ffffffffffffffffffffffffffffffffffffffff166106096107f2565b73ffffffffffffffffffffffffffffffffffffffff161461065f576040517f08c379a00000000000000000000000000000000000000000000000000000000081526004016106569061167a565b60405180910390fd5b6106698282611045565b5050565b60008060008373ffffffffffffffffffffffffffffffffffffffff1673ffffffffffffffffffffffffffffffffffffffff168152602001908152602001600020549050919050565b6106bd610bf3565b73ffffffffffffffffffffffffffffffffffffffff166106db6107f2565b73ffffffffffffffffffffffffffffffffffffffff1614610731576040517f08c379a00000000000000000000000000000000000000000000000000000000081526004016107289061167a565b60405180910390fd5b600073ffffffffffffffffffffffffffffffffffffffff16600560009054906101000a900473ffffffffffffffffffffffffffffffffffffffff1673ffffffffffffffffffffffffffffffffffffffff167f8be0079c531659141344cd1fd0a4f28419497f9722a3daafe3b4186f6b6457e060405160405180910390a36000600560006101000a81548173ffffffffffffffffffffffffffffffffffffffff021916908373ffffffffffffffffffffffffffffffffffffffff160217905550565b6000600560009054906101000a900473ffffffffffffffffffffffffffffffffffffffff16905090565b60606004805461082b9061189e565b80601f01602080910402602001604051908101604052809291908181526020018280546108579061189e565b80156108a45780601f10610879576101008083540402835291602001916108a4565b820191906000526020600020905b81548152906001019060200180831161088757829003601f168201915b5050505050905090565b600080600160006108bd610bf3565b73ffffffffffffffffffffffffffffffffffffffff1673ffffffffffffffffffffffffffffffffffffffff16815260200190815260200160002060008573ffffffffffffffffffffffffffffffffffffffff1673ffffffffffffffffffffffffffffffffffffffff1681526020019081526020016000205490508281101561097a576040517f08c379a0000000000000000000000000000000000000000000000000000000008152600401610971906116fa565b60405180910390fd5b610997610985610bf3565b85858461099291906117e2565b610bfb565b600191505092915050565b60006109b66109af610bf3565b8484610dc6565b6001905092915050565b6000600160008473ffffffffffffffffffffffffffffffffffffffff1673ffffffffffffffffffffffffffffffffffffffff16815260200190815260200160002060008373ffffffffffffffffffffffffffffffffffffffff1673ffffffffffffffffffffffffffffffffffffffff16815260200190815260200160002054905092915050565b610a4f610bf3565b73ffffffffffffffffffffffffffffffffffffffff16610a6d6107f2565b73ffffffffffffffffffffffffffffffffffffffff1614610ac3576040517f08c379a0000000000000000000000000000000000000000000000000000000008152600401610aba9061167a565b60405180910390fd5b600073ffffffffffffffffffffffffffffffffffffffff168173ffffffffffffffffffffffffffffffffffffffff161415610b33576040517f08c379a0000000000000000000000000000000000000000000000000000000008152600401610b2a906115fa565b60405180910390fd5b8073ffffffffffffffffffffffffffffffffffffffff16600560009054906101000a900473ffffffffffffffffffffffffffffffffffffffff1673ffffffffffffffffffffffffffffffffffffffff167f8be0079c531659141344cd1fd0a4f28419497f9722a3daafe3b4186f6b6457e060405160405180910390a380600560006101000a81548173ffffffffffffffffffffffffffffffffffffffff021916908373ffffffffffffffffffffffffffffffffffffffff16021790555050565b600033905090565b600073ffffffffffffffffffffffffffffffffffffffff168373ffffffffffffffffffffffffffffffffffffffff161415610c6b576040517f08c379a0000000000000000000000000000000000000000000000000000000008152600401610c62906116da565b60405180910390fd5b600073ffffffffffffffffffffffffffffffffffffffff168273ffffffffffffffffffffffffffffffffffffffff161415610cdb576040517f08c379a0000000000000000000000000000000000000000000000000000000008152600401610cd29061161a565b60405180910390fd5b80600160008573ffffffffffffffffffffffffffffffffffffffff1673ffffffffffffffffffffffffffffffffffffffff16815260200190815260200160002060008473ffffffffffffffffffffffffffffffffffffffff1673ffffffffffffffffffffffffffffffffffffffff168152602001908152602001600020819055508173ffffffffffffffffffffffffffffffffffffffff168373ffffffffffffffffffffffffffffffffffffffff167f8c5be1e5ebec7d5bd14f71427d1e84f3dd0314c0f7b2291e5b200ac8c7c3b92583604051610db9919061173a565b60405180910390a3505050565b600073ffffffffffffffffffffffffffffffffffffffff168373ffffffffffffffffffffffffffffffffffffffff161415610e36576040517f08c379a0000000000000000000000000000000000000000000000000000000008152600401610e2d9061169a565b60405180910390fd5b600073ffffffffffffffffffffffffffffffffffffffff168273ffffffffffffffffffffffffffffffffffffffff161415610ea6576040517f08c379a0000000000000000000000000000000000000000000000000000000008152600401610e9d906115da565b60405180910390fd5b610eb18383836110af565b60008060008573ffffffffffffffffffffffffffffffffffffffff1673ffffffffffffffffffffffffffffffffffffffff16815260200190815260200160002054905081811015610f37576040517f08c379a0000000000000000000000000000000000000000000000000000000008152600401610f2e9061163a565b60405180910390fd5b8181610f4391906117e2565b6000808673ffffffffffffffffffffffffffffffffffffffff1673ffffffffffffffffffffffffffffffffffffffff16815260200190815260200160002081905550816000808573ffffffffffffffffffffffffffffffffffffffff1673ffffffffffffffffffffffffffffffffffffffff1681526020019081526020016000206000828254610fd3919061178c565b925050819055508273ffffffffffffffffffffffffffffffffffffffff168473ffffffffffffffffffffffffffffffffffffffff167fddf252ad1be2c89b69c2b068fc378daa952ba7f163c4a11628f55a4df523b3ef84604051611037919061173a565b60405180910390a350505050565b61104d61050f565b816110566103fb565b611060919061178c565b11156110a1576040517f08c379a0000000000000000000000000000000000000000000000000000000008152600401611098906116ba565b60405180910390fd5b6110ab82826110b4565b5050565b505050565b6110bc61050f565b816110c56103fb565b6110cf919061178c565b1115611110576040517f08c379a0000000000000000000000000000000000000000000000000000000008152600401611107906116ba565b60405180910390fd5b61111a828261111e565b5050565b600073ffffffffffffffffffffffffffffffffffffffff168273ffffffffffffffffffffffffffffffffffffffff16141561118e576040517f08c379a00000000000000000000000000000000000000000000000000000000081526004016111859061171a565b60405180910390fd5b61119a600083836110af565b80600260008282546111ac919061178c565b92505081905550806000808473ffffffffffffffffffffffffffffffffffffffff1673ffffffffffffffffffffffffffffffffffffffff1681526020019081526020016000206000828254611201919061178c565b925050819055508173ffffffffffffffffffffffffffffffffffffffff16600073ffffffffffffffffffffffffffffffffffffffff167fddf252ad1be2c89b69c2b068fc378daa952ba7f163c4a11628f55a4df523b3ef83604051611266919061173a565b60405180910390a35050565b60008135905061128181611c32565b92915050565b60008135905061129681611c49565b92915050565b6000602082840312156112ae57600080fd5b60006112bc84828501611272565b91505092915050565b600080604083850312156112d857600080fd5b60006112e685828601611272565b92505060206112f785828601611272565b9150509250929050565b60008060006060848603121561131657600080fd5b600061132486828701611272565b935050602061133586828701611272565b925050604061134686828701611287565b9150509250925092565b6000806040838503121561136357600080fd5b600061137185828601611272565b925050602061138285828601611287565b9150509250929050565b61139581611816565b82525050565b6113a481611828565b82525050565b60006113b582611770565b6113bf818561177b565b93506113cf81856020860161186b565b6113d88161192e565b840191505092915050565b60006113f060238361177b565b91506113fb8261193f565b604082019050919050565b600061141360268361177b565b915061141e8261198e565b604082019050919050565b600061143660228361177b565b9150611441826119dd565b604082019050919050565b600061145960268361177b565b915061146482611a2c565b604082019050919050565b600061147c60288361177b565b915061148782611a7b565b604082019050919050565b600061149f60208361177b565b91506114aa82611aca565b602082019050919050565b60006114c260258361177b565b91506114cd82611af3565b604082019050919050565b60006114e560198361177b565b91506114f082611b42565b602082019050919050565b600061150860248361177b565b915061151382611b6b565b604082019050919050565b600061152b60258361177b565b915061153682611bba565b604082019050919050565b600061154e601f8361177b565b915061155982611c09565b602082019050919050565b61156d81611854565b82525050565b61157c8161185e565b82525050565b6000602082019050611597600083018461138c565b92915050565b60006020820190506115b2600083018461139b565b92915050565b600060208201905081810360008301526115d281846113aa565b905092915050565b600060208201905081810360008301526115f3816113e3565b9050919050565b6000602082019050818103600083015261161381611406565b9050919050565b6000602082019050818103600083015261163381611429565b9050919050565b600060208201905081810360008301526116538161144c565b9050919050565b600060208201905081810360008301526116738161146f565b9050919050565b6000602082019050818103600083015261169381611492565b9050919050565b600060208201905081810360008301526116b3816114b5565b9050919050565b600060208201905081810360008301526116d3816114d8565b9050919050565b600060208201905081810360008301526116f3816114fb565b9050919050565b600060208201905081810360008301526117138161151e565b9050919050565b6000602082019050818103600083015261173381611541565b9050919050565b600060208201905061174f6000830184611564565b92915050565b600060208201905061176a6000830184611573565b92915050565b600081519050919050565b600082825260208201905092915050565b600061179782611854565b91506117a283611854565b9250827fffffffffffffffffffffffffffffffffffffffffffffffffffffffffffffffff038211156117d7576117d66118d0565b5b828201905092915050565b60006117ed82611854565b91506117f883611854565b92508282101561180b5761180a6118d0565b5b828203905092915050565b600061182182611834565b9050919050565b60008115159050919050565b600073ffffffffffffffffffffffffffffffffffffffff82169050919050565b6000819050919050565b600060ff82169050919050565b60005b8381101561188957808201518184015260208101905061186e565b83811115611898576000848401525b50505050565b600060028204905060018216806118b657607f821691505b602082108114156118ca576118c96118ff565b5b50919050565b7f4e487b7100000000000000000000000000000000000000000000000000000000600052601160045260246000fd5b7f4e487b7100000000000000000000000000000000000000000000000000000000600052602260045260246000fd5b6000601f19601f8301169050919050565b7f45524332303a207472616e7366657220746f20746865207a65726f206164647260008201527f6573730000000000000000000000000000000000000000000000000000000000602082015250565b7f4f776e61626c653a206e6577206f776e657220697320746865207a65726f206160008201527f6464726573730000000000000000000000000000000000000000000000000000602082015250565b7f45524332303a20617070726f766520746f20746865207a65726f20616464726560008201527f7373000000000000000000000000000000000000000000000000000000000000602082015250565b7f45524332303a207472616e7366657220616d6f756e742065786365656473206260008201527f616c616e63650000000000000000000000000000000000000000000000000000602082015250565b7f45524332303a207472616e7366657220616d6f756e742065786365656473206160008201527f6c6c6f77616e6365000000000000000000000000000000000000000000000000602082015250565b7f4f776e61626c653a2063616c6c6572206973206e6f7420746865206f776e6572600082015250565b7f45524332303a207472616e736665722066726f6d20746865207a65726f20616460008201527f6472657373000000000000000000000000000000000000000000000000000000602082015250565b7f45524332304361707065643a2063617020657863656564656400000000000000600082015250565b7f45524332303a20617070726f76652066726f6d20746865207a65726f2061646460008201527f7265737300000000000000000000000000000000000000000000000000000000602082015250565b7f45524332303a2064656372656173656420616c6c6f77616e63652062656c6f7760008201527f207a65726f000000000000000000000000000000000000000000000000000000602082015250565b7f45524332303a206d696e7420746f20746865207a65726f206164647265737300600082015250565b611c3b81611816565b8114611c4657600080fd5b50565b611c5281611854565b8114611c5d57600080fd5b5056fea26469706673582212203b32a7de03dc8073159ef533e2ec5a5cf753e05e719c6d15c42841cfd23cafdb64736f6c63430008040033",
  "linkReferences": {},
  "deployedLinkReferences": {}
}