{
  "_format": "hh-sol-artifact-1",
  "contractName": "Staking",
  "sourceName": "contracts/Staking.sol",
  "abi": [
    {
      "inputs": [
        {
          "internalType": "address",
          "name": "_token",
          "type": "address"
        },
        {
          "internalType": "address",
          "name": "_dao",
          "type": "address"
        }
      ],
      "stateMutability": "nonpayable",
      "type": "constructor"
    },
    {
      "anonymous": false,
      "inputs": [
        {
          "indexed": false,
          "internalType": "address",
          "name": "calledBy",
          "type": "address"
        },
        {
          "indexed": false,
          "internalType": "uint256",
          "name": "shutdownBlock",
          "type": "uint256"
        }
      ],
      "name": "EmergencyShutdown",
      "type": "event"
    },
    {
      "anonymous": false,
      "inputs": [
        {
          "indexed": false,
          "internalType": "address",
          "name": "staker",
          "type": "address"
        },
        {
          "indexed": false,
          "internalType": "uint256",
          "name": "newStakedBalance",
          "type": "uint256"
        }
      ],
      "name": "StakeChanged",
      "type": "event"
    },
    {
      "anonymous": false,
      "inputs": [
        {
          "indexed": false,
          "internalType": "address",
          "name": "staker",
          "type": "address"
        },
        {
          "indexed": false,
          "internalType": "uint256",
          "name": "newUnlockBlock",
          "type": "uint256"
        }
      ],
      "name": "UnlockTimeIncreased",
      "type": "event"
    },
    {
      "inputs": [],
      "name": "daoAddress",
      "outputs": [
        {
          "internalType": "address",
          "name": "",
          "type": "address"
        }
      ],
      "stateMutability": "view",
      "type": "function"
    },
    {
      "inputs": [
        {
          "internalType": "address",
          "name": "admin",
          "type": "address"
        }
      ],
      "name": "emergencyShutdown",
      "outputs": [],
      "stateMutability": "nonpayable",
      "type": "function"
    },
    {
      "inputs": [],
      "name": "getDaoAddress",
      "outputs": [
        {
          "internalType": "address",
          "name": "",
          "type": "address"
        }
      ],
      "stateMutability": "view",
      "type": "function"
    },
    {
      "inputs": [
        {
          "internalType": "address",
          "name": "staker",
          "type": "address"
        }
      ],
      "name": "getStakedBalance",
      "outputs": [
        {
          "internalType": "uint256",
          "name": "",
          "type": "uint256"
        }
      ],
      "stateMutability": "view",
      "type": "function"
    },
    {
      "inputs": [],
      "name": "getTokenAddress",
      "outputs": [
        {
          "internalType": "address",
          "name": "",
          "type": "address"
        }
      ],
      "stateMutability": "view",
      "type": "function"
    },
    {
      "inputs": [
        {
          "internalType": "address",
          "name": "staker",
          "type": "address"
        }
      ],
      "name": "getUnlockTime",
      "outputs": [
        {
          "internalType": "uint256",
          "name": "",
          "type": "uint256"
        }
      ],
      "stateMutability": "view",
      "type": "function"
    },
    {
      "inputs": [],
      "name": "isShutdown",
      "outputs": [
        {
          "internalType": "bool",
          "name": "",
          "type": "bool"
        }
      ],
      "stateMutability": "view",
      "type": "function"
    },
    {
      "inputs": [
        {
          "internalType": "uint256",
          "name": "amount",
          "type": "uint256"
        }
      ],
      "name": "stake",
      "outputs": [],
      "stateMutability": "nonpayable",
      "type": "function"
    },
    {
      "inputs": [],
      "name": "tokenAddress",
      "outputs": [
        {
          "internalType": "address",
          "name": "",
          "type": "address"
        }
      ],
      "stateMutability": "view",
      "type": "function"
    },
    {
      "inputs": [
        {
          "internalType": "address",
          "name": "voter",
          "type": "address"
        },
        {
          "internalType": "uint256",
          "name": "endBlock",
          "type": "uint256"
        }
      ],
      "name": "voted",
      "outputs": [
        {
          "internalType": "bool",
          "name": "",
          "type": "bool"
        }
      ],
      "stateMutability": "nonpayable",
      "type": "function"
    },
    {
      "inputs": [
        {
          "internalType": "uint256",
          "name": "amount",
          "type": "uint256"
        }
      ],
      "name": "withdraw",
      "outputs": [],
      "stateMutability": "nonpayable",
      "type": "function"
    }
  ],
  "bytecode": "0x60806040526000600760006101000a81548160ff0219169083151502179055503480156200002c57600080fd5b50604051620017723803806200177283398181016040528101906200005291906200013c565b600160008190555081600360006101000a81548173ffffffffffffffffffffffffffffffffffffffff021916908373ffffffffffffffffffffffffffffffffffffffff16021790555080600460006101000a81548173ffffffffffffffffffffffffffffffffffffffff021916908373ffffffffffffffffffffffffffffffffffffffff16021790555081600560006101000a81548173ffffffffffffffffffffffffffffffffffffffff021916908373ffffffffffffffffffffffffffffffffffffffff1602179055505050620001cb565b6000815190506200013681620001b1565b92915050565b600080604083850312156200015057600080fd5b6000620001608582860162000125565b9250506020620001738582860162000125565b9150509250929050565b60006200018a8262000191565b9050919050565b600073ffffffffffffffffffffffffffffffffffffffff82169050919050565b620001bc816200017d565b8114620001c857600080fd5b50565b61159780620001db6000396000f3fe608060405234801561001057600080fd5b50600436106100a95760003560e01c806351ae58af1161007157806351ae58af146101545780639d76ea5814610170578063a694fc3a1461018e578063bf86d690146101aa578063c591aa98146101c8578063dbed1e88146101f8576100a9565b806310fe9ae8146100ae5780631d68702d146100cc5780632131c68c146100ea5780632e1a7d4d146101085780633a02a42d14610124575b600080fd5b6100b6610228565b6040516100c39190611030565b60405180910390f35b6100d4610252565b6040516100e19190611030565b60405180910390f35b6100f261027c565b6040516100ff9190611030565b60405180910390f35b610122600480360381019061011d9190610e53565b6102a2565b005b61013e60048036038101906101399190610dc5565b61055f565b60405161014b919061122f565b60405180910390f35b61016e60048036038101906101699190610dc5565b6105a8565b005b610178610735565b6040516101859190611030565b60405180910390f35b6101a860048036038101906101a39190610e53565b61075b565b005b6101b2610b60565b6040516101bf91906110d4565b60405180910390f35b6101e260048036038101906101dd9190610dee565b610b77565b6040516101ef91906110d4565b60405180910390f35b610212600480360381019061020d9190610dc5565b610d28565b60405161021f919061122f565b60405180910390f35b6000600360009054906101000a900473ffffffffffffffffffffffffffffffffffffffff16905090565b6000600460009054906101000a900473ffffffffffffffffffffffffffffffffffffffff16905090565b600460009054906101000a900473ffffffffffffffffffffffffffffffffffffffff1681565b600760009054906101000a900460ff166103385743600260003373ffffffffffffffffffffffffffffffffffffffff1673ffffffffffffffffffffffffffffffffffffffff1681526020019081526020016000205410610337576040517f08c379a000000000000000000000000000000000000000000000000000000000815260040161032e9061110f565b60405180910390fd5b5b80600160003373ffffffffffffffffffffffffffffffffffffffff1673ffffffffffffffffffffffffffffffffffffffff1681526020019081526020016000205410156103ba576040517f08c379a00000000000000000000000000000000000000000000000000000000081526004016103b19061114f565b60405180910390fd5b8060065410156103ff576040517f08c379a00000000000000000000000000000000000000000000000000000000081526004016103f6906110ef565b60405180910390fd5b806006600082825461041191906112b1565b9250508190555080600160003373ffffffffffffffffffffffffffffffffffffffff1673ffffffffffffffffffffffffffffffffffffffff168152602001908152602001600020600082825461046791906112b1565b92505081905550600560009054906101000a900473ffffffffffffffffffffffffffffffffffffffff1673ffffffffffffffffffffffffffffffffffffffff1663a9059cbb33836040518363ffffffff1660e01b81526004016104cb9291906110ab565b602060405180830381600087803b1580156104e557600080fd5b505af11580156104f9573d6000803e3d6000fd5b505050506040513d601f19601f8201168201806040525081019061051d9190610e2a565b61055c576040517f08c379a00000000000000000000000000000000000000000000000000000000081526004016105539061120f565b60405180910390fd5b50565b6000600160008373ffffffffffffffffffffffffffffffffffffffff1673ffffffffffffffffffffffffffffffffffffffff168152602001908152602001600020549050919050565b600460009054906101000a900473ffffffffffffffffffffffffffffffffffffffff1673ffffffffffffffffffffffffffffffffffffffff163373ffffffffffffffffffffffffffffffffffffffff1614610638576040517f08c379a000000000000000000000000000000000000000000000000000000000815260040161062f9061112f565b60405180910390fd5b600760009054906101000a900460ff1615610688576040517f08c379a000000000000000000000000000000000000000000000000000000000815260040161067f906111af565b60405180910390fd5b600260005414156106ce576040517f08c379a00000000000000000000000000000000000000000000000000000000081526004016106c5906111ef565b60405180910390fd5b60026000819055506001600760006101000a81548160ff0219169083151502179055507f077382e0341a6d8666d1f8ed15b8c933a01f5c1a3e6c5229e2db8c5dc1c06ae181436040516107229291906110ab565b60405180910390a1600160008190555050565b600360009054906101000a900473ffffffffffffffffffffffffffffffffffffffff1681565b600760009054906101000a900460ff16156107ab576040517f08c379a00000000000000000000000000000000000000000000000000000000081526004016107a2906111af565b60405180910390fd5b80600560009054906101000a900473ffffffffffffffffffffffffffffffffffffffff1673ffffffffffffffffffffffffffffffffffffffff166370a08231336040518263ffffffff1660e01b81526004016108079190611030565b60206040518083038186803b15801561081f57600080fd5b505afa158015610833573d6000803e3d6000fd5b505050506040513d601f19601f820116820180604052508101906108579190610e7c565b1015610898576040517f08c379a000000000000000000000000000000000000000000000000000000000815260040161088f9061116f565b60405180910390fd5b80600560009054906101000a900473ffffffffffffffffffffffffffffffffffffffff1673ffffffffffffffffffffffffffffffffffffffff1663dd62ed3e33306040518363ffffffff1660e01b81526004016108f692919061104b565b60206040518083038186803b15801561090e57600080fd5b505afa158015610922573d6000803e3d6000fd5b505050506040513d601f19601f820116820180604052508101906109469190610e7c565b11610986576040517f08c379a000000000000000000000000000000000000000000000000000000000815260040161097d9061118f565b60405180910390fd5b600560009054906101000a900473ffffffffffffffffffffffffffffffffffffffff1673ffffffffffffffffffffffffffffffffffffffff166323b872dd3330846040518463ffffffff1660e01b81526004016109e593929190611074565b602060405180830381600087803b1580156109ff57600080fd5b505af1158015610a13573d6000803e3d6000fd5b505050506040513d601f19601f82011682018060405250810190610a379190610e2a565b610a76576040517f08c379a0000000000000000000000000000000000000000000000000000000008152600401610a6d906111cf565b60405180910390fd5b8060066000828254610a88919061125b565b9250508190555080600160003373ffffffffffffffffffffffffffffffffffffffff1673ffffffffffffffffffffffffffffffffffffffff1681526020019081526020016000206000828254610ade919061125b565b925050819055507f39df0e5286a3ef2f42a0bf52f32cfe2c58e5b0405f47fe512f2c2439e4cfe20433600160003373ffffffffffffffffffffffffffffffffffffffff1673ffffffffffffffffffffffffffffffffffffffff16815260200190815260200160002054604051610b559291906110ab565b60405180910390a150565b6000600760009054906101000a900460ff16905090565b6000600460009054906101000a900473ffffffffffffffffffffffffffffffffffffffff1673ffffffffffffffffffffffffffffffffffffffff163373ffffffffffffffffffffffffffffffffffffffff1614610c09576040517f08c379a0000000000000000000000000000000000000000000000000000000008152600401610c009061112f565b60405180910390fd5b600760009054906101000a900460ff1615610c59576040517f08c379a0000000000000000000000000000000000000000000000000000000008152600401610c50906111af565b60405180910390fd5b81600260008573ffffffffffffffffffffffffffffffffffffffff1673ffffffffffffffffffffffffffffffffffffffff168152602001908152602001600020541015610d1e5781600260008573ffffffffffffffffffffffffffffffffffffffff1673ffffffffffffffffffffffffffffffffffffffff168152602001908152602001600020819055507ff0b754f2925666b6f5b25e763f36d2663a4f335930adaf3b74155edd83a43d2b8383604051610d159291906110ab565b60405180910390a15b6001905092915050565b6000600260008373ffffffffffffffffffffffffffffffffffffffff1673ffffffffffffffffffffffffffffffffffffffff168152602001908152602001600020549050919050565b600081359050610d808161151c565b92915050565b600081519050610d9581611533565b92915050565b600081359050610daa8161154a565b92915050565b600081519050610dbf8161154a565b92915050565b600060208284031215610dd757600080fd5b6000610de584828501610d71565b91505092915050565b60008060408385031215610e0157600080fd5b6000610e0f85828601610d71565b9250506020610e2085828601610d9b565b9150509250929050565b600060208284031215610e3c57600080fd5b6000610e4a84828501610d86565b91505092915050565b600060208284031215610e6557600080fd5b6000610e7384828501610d9b565b91505092915050565b600060208284031215610e8e57600080fd5b6000610e9c84828501610db0565b91505092915050565b610eae816112e5565b82525050565b610ebd816112f7565b82525050565b6000610ed0601e8361124a565b9150610edb8261135c565b602082019050919050565b6000610ef360178361124a565b9150610efe82611385565b602082019050919050565b6000610f16601f8361124a565b9150610f21826113ae565b602082019050919050565b6000610f39601b8361124a565b9150610f44826113d7565b602082019050919050565b6000610f5c60218361124a565b9150610f6782611400565b604082019050919050565b6000610f7f601a8361124a565b9150610f8a8261144f565b602082019050919050565b6000610fa2601f8361124a565b9150610fad82611478565b602082019050919050565b6000610fc560158361124a565b9150610fd0826114a1565b602082019050919050565b6000610fe8601f8361124a565b9150610ff3826114ca565b602082019050919050565b600061100b600f8361124a565b9150611016826114f3565b602082019050919050565b61102a81611323565b82525050565b60006020820190506110456000830184610ea5565b92915050565b60006040820190506110606000830185610ea5565b61106d6020830184610ea5565b9392505050565b60006060820190506110896000830186610ea5565b6110966020830185610ea5565b6110a36040830184611021565b949350505050565b60006040820190506110c06000830185610ea5565b6110cd6020830184611021565b9392505050565b60006020820190506110e96000830184610eb4565b92915050565b6000602082019050818103600083015261110881610ec3565b9050919050565b6000602082019050818103600083015261112881610ee6565b9050919050565b6000602082019050818103600083015261114881610f09565b9050919050565b6000602082019050818103600083015261116881610f2c565b9050919050565b6000602082019050818103600083015261118881610f4f565b9050919050565b600060208201905081810360008301526111a881610f72565b9050919050565b600060208201905081810360008301526111c881610f95565b9050919050565b600060208201905081810360008301526111e881610fb8565b9050919050565b6000602082019050818103600083015261120881610fdb565b9050919050565b6000602082019050818103600083015261122881610ffe565b9050919050565b60006020820190506112446000830184611021565b92915050565b600082825260208201905092915050565b600061126682611323565b915061127183611323565b9250827fffffffffffffffffffffffffffffffffffffffffffffffffffffffffffffffff038211156112a6576112a561132d565b5b828201905092915050565b60006112bc82611323565b91506112c783611323565b9250828210156112da576112d961132d565b5b828203905092915050565b60006112f082611303565b9050919050565b60008115159050919050565b600073ffffffffffffffffffffffffffffffffffffffff82169050919050565b6000819050919050565b7f4e487b7100000000000000000000000000000000000000000000000000000000600052601160045260246000fd5b7f696e73756666696369656e742066756e647320696e20636f6e74726163740000600082015250565b7f546f6b656e73206e6f7420756e6c6f636b656420796574000000000000000000600082015250565b7f6f6e6c792064616f2063616e2063616c6c20746869732066756e6374696f6e00600082015250565b7f496e73756666696369656e74207374616b65642062616c616e63650000000000600082015250565b7f416d6f756e7420686967686572207468616e207573657227732062616c616e6360008201527f6500000000000000000000000000000000000000000000000000000000000000602082015250565b7f417070726f76656420616c6c6f77616e636520746f6f206c6f77000000000000600082015250565b7f63616e6e6f742062652063616c6c65642061667465722073687574646f776e00600082015250565b7f7374616b696e6720746f6b656e73206661696c65640000000000000000000000600082015250565b7f5265656e7472616e637947756172643a207265656e7472616e742063616c6c00600082015250565b7f7769746864726177206661696c65640000000000000000000000000000000000600082015250565b611525816112e5565b811461153057600080fd5b50565b61153c816112f7565b811461154757600080fd5b50565b61155381611323565b811461155e57600080fd5b5056fea2646970667358221220528e6676f6cfdb669ae2b47810f29025eee32fe696a4f8346c17edf36489d39c64736f6c63430008040033",
  "linkReferences": {},
  "deployedLinkReferences": {}
}